:100000000C94AC020C94CD020C94CD020C94CD0255
:100010000C94CD020C94CD020C94CD020C94CD0224
:100020000C94CD020C94CD020C94CD020C94CD0214
:100030000C94CD020C94CD020C94FB090C94CD02CF
:100040000C94CD020C94CD020C94CD020C94CD02F4
:100050000C94CD020C94CD020C94CD020C94CD02E4
:100060000C94CD020C94CD020C94CD020C949818F3
:100070000C94CD020C94CD020C94CD020C94CD02C4
:100080000C94CD020C94CD020C9497070C94CD02E5
:100090000C94CD020C94CD020C94CD020C94CD02A4
:1000A0000C94CD020C94CD020C94CD020C94CD0294
:1000B0000C94CD020C94CD020C94CD020C94CD0284
:1000C0000C94CD020C94CD020C94CD020C94CD0274
:1000D0000C94CD020C94CD020C94CD020C94CD0264
:1000E0000C94CD020C94CD020C94CD020C94CD0254
:1000F0000C9420150C94CD020C94CD020C94CD02DE
:100100000C94CD020C94CD020C94CD020C94CD0233
:100110000C94CD020C94CD020C94CD020C94A20A46
:100120000C94CD020C94CD020C94CD020C94CD0213
:100130000C94CD020C943E0A0C94CD020C94CD028A
:100140000C94CD020C94CD020C94CD020C94E412CC
:100150000C94CD020C94CD020C94CD020C94CD02E3
:100160000C94CD020C94CD020C94CD020C94121779
:100170000C94CD020C9469170C94CD020C94CD0212
:100180000C94CD020C94CD020C94CD020C94CD02B3
:100190000C94CD020C94CD020C94CD020C94CD02A3
:1001A0000C94CD020C94CD020C94CD020C94CD0293
:1001B0000C94CD020C94CD020C94CD020C94CD0283
:1001C0000C94CD020C94CD020C94CD020C94CD0273
:1001D0000C94CD020C94CD020C94CD020C945B1CBB
:1001E0000C94CD020C94ED1C05A84CCDB2D44EB9A4
:1001F0003836A9020C50B9918688083CA6AAAA2ACA
:10020000BE000000803F0664EC1B3C04BC163E3B75
:10021000E5B93CC93C37C29E5A3D660498083EEA9F
:1002200069AAAA3E000000803F000021104220631E
:10023000308440A550C660E770088129914AA16BBF
:10024000B18CC1ADD1CEE1EFF13112100273325257
:1002500022B5529442F772D662399318837BB35A0F
:10026000A3BDD39CC3FFF3DEE36224433420040127
:1002700014E664C774A44485546AA54BB52885095F
:1002800095EEE5CFF5ACC58DD553367226111630F7
:1002900006D776F6669556B4465BB77AA7199738AF
:1002A00087DFF7FEE79DD7BCC7C448E5588668A737
:1002B000784008611802282338CCC9EDD98EE9AFFF
:1002C000F9488969990AA92BB9F55AD44AB77A9697
:1002D0006A711A500A333A122AFDDBDCCBBFFB9E4F
:1002E000EB799B588B3BBB1AABA66C877CE44CC567
:1002F0005C222C033C600C411CAEED8FFDECCDCD9F
:10030000DD2AAD0BBD688D499D977EB66ED55EF436
:100310004E133E322E511E700E9FFFBEEFDDDFFCEE
:10032000CF1BBF3AAF599F788F8891A981CAB1EB93
:10033000A10CD12DC14EF16FE18010A100C230E3BC
:10034000200450254046706760B9839893FBA3DA78
:10035000B33DC31CD37FE35EF3B1029012F322D20C
:10036000323542145277625672EAB5CBA5A8958908
:10037000856EF54FE52CD50DC5E234C324A014815C
:10038000046674476424540544DBA7FAB79987B818
:10039000975FE77EF71DC73CD7D326F2369106B0AC
:1003A0001657667676154634564CD96DC90EF92F18
:1003B000E9C899E9898AB9ABA944586548067827FC
:1003C00068C018E1088238A3287DCB5CDB3FEB1EB8
:1003D000FBF98BD89BBBAB9ABB754A545A376A164C
:1003E0007AF10AD01AB32A923A2EFD0FED6CDD4D48
:1003F000CDAABD8BADE89DC98D267C076C645C459C
:100400004CA23C832CE01CC10C1FEF3EFF5DCF7C57
:10041000DF9BAFBABFD98FF89F176E367E554E74EB
:100420005E932EB23ED10EF01E583A25690A593A13
:1004300025690A5A3A25690A00585B25693A2569EF
:100440005D0A595B25693A25695D0A5A5B25693A57
:1004500025695D0A006E616E00696E660000407A73
:1004600010F35A00A0724E18090010A5D4E800003D
:10047000E87648170000E40B54020000CA9A3B00DB
:100480000000E1F505000080969800000040420F52
:10049000000000A08601000000102700000000E816
:1004A00003000000006400000000000A00000000DB
:1004B000000100000000002C76D888DC674F08237C
:1004C000DFC1DFAE59E1B1B796E5E3E453C63AE6E2
:1004D00051997696E8E6C28426EB898C9B62ED40C2
:1004E0007C6FFCEFBC9C9F40F2BAA56FA5F4900511
:1004F0005A2AF75C936B6CF9676DC11BFCE0E40D45
:1005000047FEF520E6B500D0ED902E030094357738
:10051000050080841E080000204E0A000000C80C60
:10052000333333330F986E12831141EF8D211489C9
:100530003BE65516CFFEE6DB18D1844B381BF77C23
:100540001D901DA4BBE424203284725E228100C968
:10055000F124ECA1E53D270011241FBECFEFDFE31E
:10056000DEBFCDBF00E00CBF10E2A0E0B0E2EAEEDB
:10057000F0E500E00BBF02C007900D92AA34B1076E
:10058000D9F712E2AAE4B0E201C01D92A83CB1077B
:10059000E1F70E94301D0C9473280C940000FC01BC
:1005A0002081207F622B60830895FC012081207FC1
:1005B000622B60830895FC012181287F622B618377
:1005C0000895FC012181287F622B61830895FC013D
:1005D000238120712062262B23830895FC0123812F
:1005E00020712062262B23830895FC012181607FE6
:1005F000622B61830895FC0121816073622B61830A
:100600000895FC012181607F6095622361830895D4
:10061000FC01218160736095622361830895FC0170
:1006200026812C7F622B66830895FC0126812C7F16
:10063000622B66830895FC012681237F622B6683EB
:100640000895FC012681237F622B66830895FC01B7
:1006500027812C7F622B67830895FC0127812C7FE3
:10066000622B67830895FC012781237F622B6783B8
:100670000895FC012781237F622B67830895FC0185
:1006800027812F7C622B67830895FC0127812F73BC
:10069000622B67830895FC018081807F80838CE0DA
:1006A00081870895FC018081807F80838CE0818731
:1006B00008950F93CF93DF931F92CDB7DEB72FB777
:1006C0002983F8941BBEFC0108ED04BF6083898177
:1006D0008FBF0F90DF91CF910F910895662311F096
:1006E00090E201C090E0842B892B80935200089502
:1006F0006F71682BE0E5F0E065830895E0E5F0E0D8
:100700002081982F9095922390839081892308953A
:10071000682B81E490E00C9459031F93CF93DF93EF
:10072000182FC0E4D0E06881687F682B80E490E0F7
:100730000E94590388818123DF91CF911F910895F1
:10074000E0E4F0E09381917F9160982B938308958A
:1007500030915600282F982F90959323611101C056
:1007600020E0922B90935600813031F48091680004
:100770008160809368000895823029F48091600040
:10078000816080936000089563E083E590E00C94BD
:10079000590361E082E490E00C945903680F791FDB
:1007A00020E030E010C0FC014191CF01E32FFF2792
:1007B000E427EE0FFF1FE75DFD4F45915491322F67
:1007C0002227242735278617970769F7C901089537
:1007D0000E94110D682F70E080E090E00E94501E92
:1007E00020E030E042EE52E40E944B1D21E63BE067
:1007F00046EB5BE30E943F1F089521E63BE046EB9A
:100800005BE30E94B71D20E030E042EE52E40E941C
:100810004C1D0E94241E862F0895CF92DF92EF92E6
:10082000FF9281E00E941A0E0E94521E2CEF3AE5C0
:1008300044E15BE30E943F1F20E030E04AE754E4DC
:100840000E943F1FC62ED72EE82EF92E262F372FB7
:10085000482F592F60914E2070914F208091502049
:10086000909151200E944C1D60934E2070934F2018
:100870008093502090935120A70196015F7760915B
:100880004A2070914B2080914C2090914D200E94E5
:100890004C1D60934A2070934B2080934C20909382
:1008A0004D206C2D7D2D8E2D9F2DFF90EF90DF9094
:1008B000CF90089550914E2040914F20309150207C
:1008C00020915120652F742F832F922F08955091DE
:1008D0004A2040914B2030914C2020914D20652F93
:1008E000742F832F922F08952F923F924F925F92F1
:1008F0006F927F928F929F92AF92BF92CF92DF9230
:10090000EF92FF920F931F93CF93DF93CDB7DEB794
:100910002A97CDBFDEBF89839A836B837C831A01BC
:100920000E94E8034B015C010E940D046B017C01F5
:1009300020E030E0A9010E94B01D882309F451C1D4
:10094000C501B4019F772FE632E143E85AE30E94E4
:10095000B01DD1014D905D906D907C9087FF35C0AA
:10096000C301B2010E94B41DA70196010E943F1F5E
:100970009B01AC01E981FA8160817181828193815F
:100980000E944C1DA981BA816D937D938D939C9398
:100990001397F10160817181828193810E94A21F6E
:1009A000A70196010E943F1F9B01AC01AB81BC8156
:1009B0006D917D918D919C910E944C1DEB81FC81EC
:1009C00060837183828393830CC1C501B4010E944B
:1009D000EA1F9B01AC0160E070E085EA93E40E94AD
:1009E000B71D8B018A879987762F982F8985272FA6
:1009F000312F492F582FFC01602F712F8F2F9E2FE1
:100A00000E943F1F20E032EB44ED57E40E944C1D52
:100A10000E94AC1F6D837E838F83988720E030E037
:100A2000A901FA85E985602F712F8F2F9E2F0E94D3
:100A3000B01D87FF09C08D819E81AF81B885B058F8
:100A40008D839E83AF83B887A7019601C701B60146
:100A50000E944C1D4B015C012D813E814F815885C8
:100A6000FA85E985602F712F8F2F9E2F0E944C1DD4
:100A70009B01AC01C501B4010E94B71D6B017C0153
:100A8000762F272F3D2D4E2D5F2DC301B2010E94E1
:100A90004C1D0E94A21F4B015C01C301B2010E94C8
:100AA000A21F9B01AC01C501B4010E944B1D9B011B
:100AB000AC01FA85E985602F712F8F2F9E2F0E9440
:100AC0003F1F9B01AC01A981BA816D917D918D91F0
:100AD0009C910E944C1DE981FA816083718382831D
:100AE0009383D1018D909D90AD90BC902C2D3D2D88
:100AF0004E2D5F2DC501B4010E944B1D0E94B41DF7
:100B00002B013C01C501B4010E94B41D9B01AC0145
:100B1000C301B2010E944B1D9B01AC01FA85E9851E
:100B2000602F712F8F2F9E2F0E943F1F9B01AC01C2
:100B3000EB81FC8160817181828193810E944C1DD7
:100B4000AB81BC816D937D938D939C9313972C2DDA
:100B50003D2D4E2D5F2DF101608171818281938148
:100B60000E944C1DD1016D937D938D939C9313979F
:100B70000DC02BED3FE049EC50E4C701B6010E94E7
:100B80004B1DF1016083718382839383D101CD90EA
:100B9000DD90ED90FC902BED3FE049EC50E4C70177
:100BA000B6010E943B1F181624F30DC02BED3FE049
:100BB00049EC50E4C701B6010E944C1DF10160836D
:100BC000718382839383D101CD90DD90ED90FC9071
:100BD00020E030E0A901C701B6010E94B01D87FDE9
:100BE000E5CF2A96CDBFDEBFDF91CF911F910F9148
:100BF000FF90EF90DF90CF90BF90AF909F908F903D
:100C00007F906F905F904F903F902F900895CF927C
:100C1000DF92EF92FF92C0904E20D0904F20E09054
:100C20005020F09051202091562030915720409133
:100C3000582050915920C701B6010E944B1DC09207
:100C40005620D0925720E0925820F0925920FF90E1
:100C5000EF90DF90CF900895CF93DF931F921F9274
:100C6000CDB7DEB7CE0101960E945D0E8823A1F0BC
:100C700069817A8180E090E00E94501E25E33AEF7E
:100C80004EE85CE30E943F1F609352207093532014
:100C900080935420909355200F900F90DF91CF9127
:100CA00008958F929F92AF92BF92CF92DF92EF9270
:100CB000FF920F931F93CF93DF931F921F92CDB795
:100CC000DEB78C01CE0101960E945D0E882309F4E7
:100CD000B5C069817A8180E090E00E94501E25E3D2
:100CE0003AEF4EE85CE30E943F1F20915220309182
:100CF000532040915420509155200E944B1D6B0170
:100D00007C0120E030E0A9017D2D9F2D0E94B01DC7
:100D100087FF0CC02BED3FE049EC50E46C2D7D2D9E
:100D20008E2D9F2D0E944C1D6B017C01F80180804F
:100D30009180A280B3802C2D3D2D4E2D5F2DC501BD
:100D4000B4010E944B1D9F772BED3FE049E450E436
:100D50000E943B1F181604F52C2D3D2D4E2D5F2DA6
:100D6000C501B4010E94B01D2BED3FE049EC50E4F9
:100D700087FF0AC0C501B4010E944C1DF8016083C1
:100D800071838283938308C06C2D7D2D8E2D9F2DC2
:100D90000E944C1D6B017C0126E636E646E65FE3C9
:100DA000F80160817181828193810E943F1F4B0114
:100DB0005C012DEC3CEC4CEC5DE36C2D7D2D8E2D1F
:100DC0009F2D0E943F1F9B01AC01C501B4010E94F1
:100DD0004C1D6B017C0120E030E0A9017D2D9F2D91
:100DE0000E94B01D2BED3FE049EC50E46C2D7D2DB1
:100DF00087FF05C08E2D9F2D0E944C1D1AC08E2D81
:100E00009F2D0E943B1F181654F04C2D5D2D6E2D0A
:100E10007F2DF80140835183628373830FC02BEDD4
:100E20003FE049EC50E46C2D7D2D8E2D9F2D0E94CE
:100E30004B1DF80160837183828393830F900F9021
:100E4000DF91CF911F910F91FF90EF90DF90CF90A6
:100E5000BF90AF909F908F90089510929221109222
:100E600090211092522110928F21109251211092B4
:100E7000912185E0809300081092200810922108AB
:100E800083E0809306088FEF90E08093260890938C
:100E90002708E9E2F6E0808182608083EAE2F6E0FA
:100EA0008081826080838AE1809331060895209159
:100EB0008F219091522181E0291301C080E0089593
:100EC000FC0190918F21809152219817D1F380914C
:100ED0008F21DF0193E0899FA00DB11D11248C911A
:100EE000808380918F21DF0193E0899FA00DB11D48
:100EF000112411968C91818380918F21DF0193E0E1
:100F0000899FA00DB11D112412968C91828380912E
:100F10008F21833130F480918F218F5F80938F21D7
:100F2000089510928F2108958091512108951F9264
:100F30000F920FB60F9211240BB60F921BBE2F9378
:100F40003F934F938F939F93AF93BF93EF93FF93F1
:100F5000CF93DF931F921F92CDB7DEB78091200809
:100F60009091210840919121342F20E0820F931F0E
:100F700089839A831092200810922108109291215F
:100F800080919221823009F495C034F4882369F06D
:100F9000813009F01CC23BC0843009F431C10CF42B
:100FA000DCC0853009F013C282C18091902181118B
:100FB00007C089E18093310681E08093902107C2C8
:100FC0008AE1809331061092902189819A81AA2723
:100FD00097FDA095BA2F9150A109B109843991418B
:100FE000A105B10508F0F3C189819A81AA2797FD6F
:100FF000A095BA2F9F5FAF4FBF4F85399141A10593
:10100000B10508F4E4C181E080939221E0C18981B7
:101010009A81AA2797FDA095BA2F9150A109B109ED
:101020008A3C9840A105B105E0F489819A81AA27FC
:1010300097FDA095BA2F9F5FAF4FBF4F8B3C984055
:10104000A105B10570F082E08093922110925B209F
:1010500010925C2010925D2010925E2010925F2012
:10106000B6C189819A81AA2797FDA095BA2F915080
:10107000A109B10985369440A105B10508F0A5C1C3
:1010800089819A81AA2797FDA095BA2F9F5FAF4FBC
:10109000BF4F86369440A105B10508F496C18091F2
:1010A0005A20813009F091C1809151218F5F809346
:1010B00051218BC189819A81AA2797FDA095BA2FCA
:1010C0009150A109B10985369440A105B105E8F414
:1010D00089819A81AA2797FDA095BA2F9F5FAF4F6C
:1010E000BF4F86369440A105B10578F081E090E0CD
:1010F00000905B2002C0880F991F0A94E2F790913C
:101100005C20982B90935C201EC089819A81AA272D
:1011100097FDA095BA2F9150A109B1098233924051
:10112000A105B10508F051C189819A81AA2797FDCF
:10113000A095BA2F9F5FAF4FBF4F83339240A10559
:10114000B10508F442C180915B208F5F80935B20E2
:10115000883009F03CC183E0A5C089819A81AA2723
:1011600097FDA095BA2F9150A109B10985369440F9
:10117000A105B105E8F489819A81AA2797FDA09578
:10118000BA2F9F5FAF4FBF4F86369440A105B10580
:1011900078F081E090E000905B2002C0880F991FFA
:1011A0000A94E2F790915D20982B90935D201EC0E9
:1011B00089819A81AA2797FDA095BA2F9150A109FC
:1011C000B10982339240A105B10508F0FEC08981C2
:1011D0009A81AA2797FDA095BA2F9F5FAF4FBF4F67
:1011E00083339240A105B10508F4EFC080915B20E4
:1011F0008F5F80935B20883009F0E9C084E052C0A3
:1012000089819A81AA2797FDA095BA2F9150A109AB
:10121000B10985369440A105B105E8F489819A8128
:10122000AA2797FDA095BA2F9F5FAF4FBF4F863675
:101230009440A105B10578F081E090E000905B203A
:1012400002C0880F991F0A94E2F790915E20982BB4
:1012500090935E201EC089819A81AA2797FDA09550
:10126000BA2F9150A109B10982339240A105B1056D
:1012700008F0ABC089819A81AA2797FDA095BA2F63
:101280009F5FAF4FBF4F83339240A105B10508F474
:101290009CC080915B208F5F80935B20883009F039
:1012A00096C085E08093922110925B2090C0898146
:1012B0009A81AA2797FDA095BA2F9150A109B1094B
:1012C00085369440A105B105E8F489819A81AA2761
:1012D00097FDA095BA2F9F5FAF4FBF4F86369440C2
:1012E000A105B10578F081E090E000905B2002C09C
:1012F000880F991F0A94E2F790915F20982B9093A2
:101300005F201EC089819A81AA2797FDA095BA2FD8
:101310009150A109B10982339240A105B10508F0AD
:1013200054C089819A81AA2797FDA095BA2F9F5F03
:10133000AF4FBF4F83339240A105B10508F445C0BC
:1013400080915B208F5F80935B20883009F03FC0E5
:1013500020915E2080915F2082278F3FB1F58091A0
:10136000522190E0FC01EE0FFF1FE80FF91FED5A2C
:10137000FE4D80915C2080838091522190E0FC01A1
:10138000EE0FFF1FE80FF91FED5AFE4D80915D2013
:1013900081838091522190E0FC01EE0FFF1FE80F46
:1013A000F91FED5AFE4D228380915221833130F492
:1013B000809152218F5F8093522102C0109252215E
:1013C0001092512181E080935A20109292210F9027
:1013D0000F90DF91CF91FF91EF91BF91AF919F91CE
:1013E0008F914F913F912F910F900BBE0F900FBE99
:1013F0000F901F9018951F920F920FB60F92112405
:101400008F93809191218F5F809391218091912181
:10141000893C20F01092922110925A208F910F90C7
:101420000FBE0F901F9018958093692090936A20AB
:101430000895CF93DF9300D01F92CDB7DEB793E529
:1014400099831A828B836C8383E70E94B11464E0D2
:1014500070E0CE0101960E94DD142496CDBFDEBF60
:10146000DF91CF910895F89460936020709361208C
:101470008093622090936320789408951F920F9236
:101480000FB60F9211240BB60F921BBE2F933F93F2
:101490004F935F936F937F938F939F93AF93BF937C
:1014A000EF93FF938091602090916120A091622042
:1014B000B09163200196A11DB11D8093602090938F
:1014C0006120A0936220B09363200E94051A80914E
:1014D0009321882329F08091932181508093932137
:1014E0008091692090916A20892B49F08091692030
:1014F00090916A2001978093692090936A2080914F
:101500002806806880958093642090916420809163
:101510000C20981721F08091642080930C20FF917B
:10152000EF91BF91AF919F918F917F916F915F915B
:101530004F913F912F910F900BBE0F900FBE0F90C8
:101540001F9018951F920F920FB60F9211240BB691
:101550000F921BBE0F931F932F933F934F935F9355
:101560006F937F938F939F93AF93BF93EF93FF936B
:10157000809110029091110200916F2010917020C3
:101580002091712030917220080F191F211D311DEB
:1015900000936F201093702020937120309372205D
:1015A00060917320709174208617970720F48093C0
:1015B0007320909374206091752070917620681745
:1015C000790720F48093752090937620809177207E
:1015D0008F5F80937720823409F045C080916D2021
:1015E00090916E206091752070917620A9019801EC
:1015F000261B370B410951096091732070917420AB
:10160000261B370B4109510966E0569547953795DA
:1016100027956A95D1F7281B390B4109510960E0DC
:101620007FE585E090E00E94032420E030E641E081
:1016300050E00E94132420936B2030936C20109272
:1016400075201092762080E49FE180937320909320
:10165000742010926F2010927020109271201092BE
:10166000722010927720FF91EF91BF91AF919F91DF
:101670008F917F916F915F914F913F912F911F912A
:101680000F910F900BBE0F900FBE0F901F901895EB
:10169000AAECB1E092E09C93E82FF0E084911C92D8
:1016A0000895CF9347E060E080EC0E946E03809144
:1016B000500088608093500068E080EC0E947803BE
:1016C0008091500080618093500060E08CE00E9427
:1016D00088038091510084FFFCCF84E00E948D0339
:1016E00081E00E947E0383E08093410688E380933B
:1016F00030068093310680933206809333068093C0
:10170000340680933506809336068093370680E250
:10171000809301068093060688E893E1809366082B
:1017200090936708C4E0C093400880E1809341082B
:1017300088EC8093800180E20E94480B80930C0229
:1017400081E20E94480B80930D028091000281602B
:10175000809300021092010282E080930202C09303
:10176000040281E08093200288E280932102E2E477
:1017700040E45FE160E070E080E090E0DC01F1E0F7
:101780002091000224602093000220912302222352
:10179000E1F3F09323022091100230911102820FA5
:1017A000931FA11DB11D6217730708F4B901241717
:1017B000350708F4A901E15019F7861B970BA10919
:1017C000B109841B950BA109B10976E0B695A795DF
:1017D000979587957A95D1F780936D2090936E2099
:1017E0001092210282E0809322028093030285E01E
:1017F0008093000984EF91E0809326099093270954
:1018000083E0809306090E946A150E9446140E9494
:10181000E2180E94B31787E08093A200789489E1D0
:1018200090E2CF910C94341ACF93DF9300D01F92A3
:10183000CDB7DEB720917D20211126C020917C20DC
:10184000211122C0442319F020E5298308C02FE488
:10185000298381312EE0920710F080E19EE09A8387
:101860008B836C8381E080937D2083E70E946014EA
:1018700064E070E0CE0101960E94671410927D2012
:1018800088EE93E00E94140A2496CDBFDEBFDF915C
:10189000CF91089580937C200895CF92DF92EF92AC
:1018A000FF920F931F93CF93DF93609378207093F1
:1018B000792080937A2090937B2020E030E040E7ED
:1018C00052E40E943F1F2AE738E84EE55CE30E949D
:1018D000B71D8B01D82FC92FAB01682F792F6A0153
:1018E0007B0120E030E0A901B8010E943B1F1816DF
:1018F00054F4B8018D2F9C2F0E94241EDC01CB01D3
:1019000041E060E009C0C701B60190580E94241E62
:10191000DC01CB0141E061E0DF91CF911F910F919C
:10192000FF90EF90DF90CF900C94140CCF92DF9249
:10193000EF92FF920F931F93CF93DF9320E030E05D
:1019400040E752E40E943F1F2AE738E84EE55CE397
:101950000E94B71D8B01D82FC92FAB01682F792F9B
:101960006A017B0120E030E0A901B8010E943B1F21
:10197000181654F4B8018D2F9C2F0E94241EDC01F0
:10198000CB0141E060E009C0C701B60190580E9458
:10199000241EDC01CB0141E061E0DF91CF911F917A
:1019A0000F91FF90EF90DF90CF900C94140C8091EA
:1019B000782090917920A0917A20B0917B20682F97
:1019C000792F8A2F9B2F0895CF93DF9300D01F92FA
:1019D000CDB7DEB790917D2091111DC08A3B18F4E0
:1019E000893218F003C089EB01C089E280937E2020
:1019F00093E599831A828B836C8381E080937D20A9
:101A000083E70E94601464E070E0CE0101960E94BA
:101A1000671410927D202496CDBFDEBFDF91CF9159
:101A2000089580917E20089580917D200895CF9320
:101A3000DF93EC0180917D20811112C081E08093C1
:101A40007D200E940F1586E70E946014AE0164E6B7
:101A500070E088E090E00E947B1410927D2001C02D
:101A600080E0DF91CF9108950F931F93CF93DF9381
:101A7000CDB7DEB72897CDBFDEBF8C01CE01019672
:101A80000E94170D882309F458C0998180E02A81AB
:101A9000BC01622B80E090E00E94501E20E030E00C
:101AA0004AE754E40E94B71DF80160837183828382
:101AB00093839B8180E02C81BC01622B80E090E0CD
:101AC0000E94501E20E030E04AE754E40E94B71D17
:101AD000F80164837583868397839D8180E02E81DE
:101AE000BC01622B80E090E00E94501E20E030E0BC
:101AF00048EC52E40E94B71DF80160877187828725
:101B000093879F8180E02885BC01622B80E090E074
:101B10000E94501E2AE738E84EE55CE30E943F1F12
:101B200020E030E040E752E40E94B71DF8016487EE
:101B300075878687978781E001C080E02896CDBFB2
:101B4000DEBFDF91CF911F910F910895FF920F9308
:101B50001F93CF93DF931F921F92CDB7DEB78C01F7
:101B600080917D20882311F0F12C2BC081E080939F
:101B70007D200E940F1582E70E946014AE014F5F26
:101B80005F4F64E670E082E090E00E947B14F82EE4
:101B900010927D20882341F3798160E08A81682B4F
:101BA000882777FD8095982F0E94521E20E030E014
:101BB00040E251E40E943F1FF801608371838283F9
:101BC00093838F2D0F900F90DF91CF911F910F91E5
:101BD000FF900895FF920F931F93CF93DF9300D050
:101BE0001F92CDB7DEB78C01CE0101960E94A60DE3
:101BF000F82E8823A9F02AE738E84EE55CE36981EE
:101C00007A818B819C810E943F1F20E030E040E779
:101C100052E40E94B71DF80160837183828393832D
:101C20008F2D2496CDBFDEBFDF91CF911F910F91F5
:101C3000FF9008950F931F93CF93DF93CDB7DEB737
:101C40002597CDBFDEBF90917D20992321F000E044
:101C500010E0980128C091E090937D208D830E9430
:101C60000F158D81882311F084E501C084E70E945F
:101C70006014AE014F5F5F4F64E670E084E090E077
:101C80000E947B1410927D20882309F389810A81A8
:101C900010E020E030E0980111270027382B8C81DC
:101CA000082B8B81182BB801C9012596CDBFDEBF4B
:101CB000DF91CF911F910F9108950F931F93CF93B1
:101CC000DF931F921F92CDB7DEB78C010E94DF1702
:101CD00084E00E94C7178FE193E00197F1F700C0FD
:101CE000000082E00E94D317AE014F5F5F4F64E1B6
:101CF00070E082E090E00E940418882349F0398166
:101D000020E08A81282BF8012083318381E001C003
:101D100080E00F900F90DF91CF911F910F91089568
:101D2000CF92DF92EF92FF920F931F93CF93DF93A7
:101D300000D000D0CDB7DEB76C017B018A0184E012
:101D40000E94C7178FE193E00197F1F700C00000F0
:101D500088E00E94D317AE014F5F5F4F64E170E0EF
:101D600086E090E00E9404188823B9F0398120E0D1
:101D70008A81282BF601208331839B8180E02C818E
:101D8000822BF701808391839D8180E02E81822BBD
:101D9000F8018083918381E001C080E02696CDBF69
:101DA000DEBFDF91CF911F910F91FF90EF90DF90F9
:101DB000CF9008950F931F93CF93DF93CDB7DEB7E6
:101DC000EC97CDBFDEBF43E850E261E870E28FE7F9
:101DD00090E20E94900E882309F4A7C080917F2092
:101DE0009091802020910D2030910E2028173907E6
:101DF0002CF480930D2090930E200BC020910F2087
:101E0000309110208217930734F480930F20909321
:101E10001020E1E001C0E0E020918120309182209B
:101E20004091112050911220421753072CF4209317
:101E30001120309312200BC0409113205091142098
:101E4000241735072CF42093132030931420E1E05D
:101E5000409183205091842060911520709116202C
:101E6000641775072CF4409315205093162016C064
:101E70006091172070911820461757072CF4409353
:101E80001720509318200AC0E11108C060918520E6
:101E90006F5F60938520683C08F447C010928520EE
:101EA0005F934F933F932F939F938F9389E294E097
:101EB0009F938F938E010F5F1F4F1F930F930E946D
:101EC000B327C8010E94341A809116208F93809105
:101ED00015208F93809118208F93809117208F93D6
:101EE000809112208F93809111208F9380911420E4
:101EF0008F93809113208F9380910E208F938091E8
:101F00000D208F93809110208F9380910F208F93BD
:101F100089E394E09F938F931F930F930E94B327BD
:101F2000C8010E94341ACDBFDEBFEC96CDBFDEBF24
:101F3000DF91CF911F910F9108950F931F93CF932E
:101F4000DF93CDB7DEB7A897CDBFDEBF8C010E946F
:101F5000DF1787E00E94C7178FE193E00197F1F741
:101F600000C0000081E00E94D317AE014F5F5F4FB9
:101F700064E170E087E090E00E940418998193305A
:101F8000A8F4882399F08A81F80180839B8180E0FE
:101F90002C81822B818392838D8183839E8180E03B
:101FA0002F81822B8483958381E001C080E0A896F5
:101FB000CDBFDEBFDF91CF911F910F910895FC013E
:101FC0003081FB012081321749F0FC019081FB0137
:101FD0008081981730F42FEF3FEF05C020E030E00C
:101FE00002C021E030E0C901089583E080934609F2
:101FF00084E080934009089580EC8093050608955D
:10200000109240091092410910924209109243091E
:10201000109246091092660910926709E091AF216B
:10202000F091B0214081A1EBB1E22C9181E090E0F0
:10203000BC0102C0660F771F2A95E2F79B0120952D
:1020400024232083E091AD21F091AE2140812C9199
:10205000BC0102C0660F771F2A95E2F79B0120950D
:1020600024232083E091B521F091B6214081A7EB94
:10207000B1E22C91BC0102C0660F771F2A95E2F7EE
:102080009B01209524232083E091B321F091B4217A
:1020900020813C91032E01C0880F0A94EAF78095B5
:1020A00082238083109289200895E82FF0E0411167
:1020B00011C086E08E9FD0018F9FB00D1124A455D2
:1020C000BE4D6C93EE0FFF1FEE0FFF1FEF53FE4D43
:1020D00010820895EE0FFF1FEE0FFF1FEF53FE4D0E
:1020E0004283618381E0808308951092862010925C
:1020F00087208093BB219093BC2181E0809388202E
:1021000010928F201092902081E090E080938D209B
:1021100090938E20089510928820089580918920B0
:102120000895FC018091AD219091AE21818392832D
:102130008091AF219091B021838394838091B121CC
:1021400085838091AC2180838091B3219091B421CB
:10215000878390878091B5219091B621818792875E
:102160008091B72183878091B221868308950F9350
:102170001F93CF93DF938FEF80938C2010928B204F
:1021800010928A2085E89AEE8093660990936709F9
:102190008EE991E20E9491102FED3FE046E050E081
:1021A00062E070E08EE991E20E94AA2480919E2173
:1021B00020E1829FC0011124809397219093982160
:1021C0002091A32181E090E001C0880F2A95EAF7D1
:1021D0008093AA2180919F219091A0218093BD217D
:1021E0009093BE2181E08093B821809394218093C5
:1021F000B921809395218093BA218093962170E034
:10220000C1E060E016E021E030E03DC04181528154
:1022100011968D919C91129748175907B1F4872F09
:1022200090E0DC01A655BE4DCC914581F90102C07C
:10223000EE0FFF1F4A95E2F7CE2BCC93FC01EC5634
:10224000FE4D80818F5F80831DC0A62FB0E0A85413
:10225000BE4D8C918F5F8C937F5F872F90E0DC0168
:10226000AA0FBB1FA354BE4D4D935C934581F9014A
:1022700002C0EE0FFF1F4A95E2F7AF01FC01E655E1
:10228000FE4D4083C2E08C2F90E0189FF001199F13
:10229000F00D1124E256FE4D0081AC014150510970
:1022A000149FD001159FB00D1124A256BE4DDC9194
:1022B0000D1303C0C13009F4A9CF6F5FA62FB0E0A2
:1022C000C13049F5189FF001199FF00D1124E25615
:1022D000FE4D8081149FE001159FD00D1124C25640
:1022E000DE4D488190E0841B9109C4E0880F991F5E
:1022F000CA95E1F7AA0FBB1FA956BE4D8D939C93BB
:102300007F5F872F90E0DC01AA0FBB1FA354BE4D57
:1023100041815281A9CF8091A421F0E18F9FC0011A
:10232000112488589F4FFD01EE0FFF1FE956FE4D07
:102330008083918360939D2180E090E016E0AC0162
:10234000440F551F440F551FDA01AF53BE4D2C915A
:102350002223E1F11196CC911197189FF001199F5A
:10236000F00D1124E455FE4DD081CD1304C01C9214
:1023700013961C922BC013963C91139712962C9196
:102380001297230F13962C9313971396AC91A29543
:10239000A695A7706A2F70E02081CD1738F42A1B0C
:1023A00020832D2F30E02C1B310906C02A0F2083FB
:1023B0002C2F30E02D1B3109261737070CF4C08372
:1023C000AA2321F0FA01EF53FE4D138201968230C9
:1023D000910509F0B4CF80918F20909190200196C3
:1023E00080938F209093902020918F203091902087
:1023F00080918D2090918E202817390709F0DFC039
:1024000080918820882309F4DAC08091BB219091C3
:10241000BC2151E066E0CFC0E0918620F09187209A
:102420009F012F5F3F4F2093862030938720E80F36
:10243000F91FE491E33081F030F4E13009F462C037
:1024400008F078C013C0E53009F4B2C008F4A3C0A6
:10245000E63009F0ADC0A7C02091C121211187C08D
:102460002091C521222309F4A6C081C0E0918620D5
:10247000F09187209F012F5F3F4F2093862030935C
:102480008720E80FF91FA491E0918620F091872022
:102490009F012F5F3F4F2093862030938720E80FC6
:1024A000F91F4491E0918620F09187209F012F5FD2
:1024B0003F4F2093862030938720E80FF91F249107
:1024C000B0E0211111C0ED01CC0FDD1FCC0FDD1FDD
:1024D000CF53DE4D18826A9FE0016B9FD00D11240F
:1024E000C455DE4D488367C0AA0FBB1FAA0FBB1F90
:1024F000AF53BE4D12962C93129711964C93119791
:102500005C9359C010928F2010929020E091862009
:10251000F09187209F012F5F3F4F209386203093BB
:102520008720E80FF91FE491F0E0E0938D20F0930D
:102530008E2045C0E0918620F09187209F012F5F7B
:102540003F4F2093862030938720E80FF91FE491B6
:1025500024E0E29FF0011124EF53FE4D208122235D
:1025600051F18091862090918720029705C080913B
:1025700086209091872001978093862090938720D2
:1025800010928F201092902081E090E080938D2017
:1025900090938E2014C010928820DF91CF911F91CC
:1025A0000F910C940010109286201092872003C087
:1025B0001092882004C02091882021112DCFDF9116
:1025C000CF911F910F9108951F920F920FB60F9206
:1025D00011240BB60F921BBE2F933F934F935F9323
:1025E0006F937F938F939F93AF93BF93EF93FF93DB
:1025F00020918C2027FF10C080EC809305068091ED
:102600009721909198218056904F809366099093DE
:10261000670910928C20C4C080919D21332727FD2B
:10262000309590E02817390799F50E94B710B8C087
:1026300080918A20992787FD9095FC01EE0FFF1F5E
:10264000E354FE4D0190F081E02D2081DC01A65580
:10265000BE4D8C9180958223808390918A20E92FB2
:10266000FF27E7FDF095EC56FE4D208180918B20F1
:10267000820F80938B209F5F90938A20E0918C2023
:10268000FF27E7FDF095E854FE4D8081815080835F
:10269000E0918C20AE2FBB27A7FDB095A854BE4D6E
:1026A0008C918111C5CFEF5FE0938C2080918B20BE
:1026B00082306CF0E0918C20EE0FFF0BE956FE4D5E
:1026C00080819181809366099093670969C0EE0FBC
:1026D000FF0BE956FE4D80819181C29758F7109209
:1026E000600910926109E0918C20EE0FFF0BE95612
:1026F000FE4D2091600930916109808191812817F8
:102700003907B8F330C080918A20992787FD9095CA
:10271000FC01EE0FFF1FE354FE4D0190F081E02D10
:102720002081DC01A655BE4D8C918095822380834B
:1027300090918A20E92FFF27E7FDF095EC56FE4D9A
:10274000208180918B20820F80938B209F5F9093BC
:102750008A20E0918C20FF27E7FDF095E854FE4D9C
:10276000808181508083E0918C20AE2FBB27A7FD14
:10277000B095A854BE4D8C918111C5CFEF5FE09309
:102780008C2080918B2082300CF094CFEE0FFF0BC9
:10279000E956FE4D80819181CC9708F4A0CF8ACF75
:1027A000FF91EF91BF91AF919F918F917F916F9129
:1027B0005F914F913F912F910F900BBE0F900FBEE5
:1027C0000F901F9018950F931F93CF93DF9384E082
:1027D00096E08093AD219093AE21CFEAD1E280E0E4
:1027E00096E08883998381EB91E226E0FC012083C7
:1027F00040E84093AC2124E436E02093B3213093A9
:10280000B42105EB11E220E436E0F80120833183A6
:10281000A7EBB1E227E02C934093B2211092BA21AA
:102820001092C1211092C4210990D881C02D4881F5
:10283000FC01208181E090E0BC0102C0660F771F9F
:102840002A95E2F7462B48831092C5211092C821A1
:10285000E801E881F98120813C9101C0880F3A9517
:10286000EAF7282B20830E94F50F0E94B71081E021
:1028700080938920DF91CF911F910F9108958EE26F
:102880008093A60A88E98093A70A089588E3809335
:10289000920688E080938506809381060E943F140B
:1028A000E5EAFAE0808183608083E4EAFAE08081EF
:1028B00088618083E3EAFAE0808184608083089500
:1028C0009091A10A95FFFCCF8093A00A08950F93E1
:1028D0001F93CF93DF938B01EC01080F191F03C0E7
:1028E00089910E946014C017D107D1F7DF91CF9171
:1028F0001F910F91089527E02093000A1092200A5B
:102900001092210AFA01840F951F40E01FC0209108
:10291000A10A51E027FF08C01092200A1092210A54
:102920004091A00A12C050E02091200A3091210A63
:102930002617370760F3552341F01092000A1092D2
:10294000200A1092210A80E008954193E817F907C0
:1029500051F71092000A1092200A1092210A81E089
:102960000895E0919220F0E0E753FE4D808380913E
:1029700092208F5F8093922080919220883211F470
:102980001092922080919120811116C081E0809355
:102990009120E0919320F0E0E753FE4D80810E946A
:1029A0006014809193208F5F809393208091932077
:1029B000883211F41092932008950F931F93CF93B0
:1029C000DF938B01EC01080F191F03C089910E944E
:1029D000B114C017D107D1F7DF91CF911F910F919B
:1029E0000895EF92FF920F931F93CF93DF93EC0123
:1029F00000E010E07E0189910E94B114F70180810E
:102A0000882331F00F5F1F4F0039F1E01F0791F766
:102A1000DF91CF911F910F91FF90EF900895CF9389
:102A2000DF931F92CDB7DEB703C08091A00A8983E0
:102A30008091A10A87FDF9CF0F90DF91CF91089582
:102A40001F920F920FB60F9211240BB60F921BBE5E
:102A50002F933F934F935F936F937F938F939F93A6
:102A6000AF93BF93EF93FF93909193208091922027
:102A7000981303C01092912013C0E0919320F0E0CE
:102A8000E753FE4D80810E946014809193208F5FF8
:102A90008093932080919320883211F41092932098
:102AA000FF91EF91BF91AF919F918F917F916F9126
:102AB0005F914F913F912F910F900BBE0F900FBEE2
:102AC0000F901F9018958EE28093B60988E9809345
:102AD000B709089588E38093760680E880936506B9
:102AE000809361060E946315E5EBF9E080818360C5
:102AF0008083E4EBF9E0808188618083E3EBF9E097
:102B000080818061808360E180E090E00C943C28CB
:102B10009091B10995FFFCCF8093B0090895E091A1
:102B20009520F0E0EF50FE4D8083809195208F5FDF
:102B30008093952080919520883211F410929520F1
:102B400080919420811116C081E080939420E091BF
:102B50009620F0E0EF50FE4D80810E948815809114
:102B600096208F5F8093962080919620883211F472
:102B70001092962008950F931F93CF93DF938B01AC
:102B8000EC01080F191F03C089910E948815C01716
:102B9000D107D1F7DF91CF911F910F9108950F9336
:102BA0001F93CF93DF938B01EC01080F191F03C014
:102BB00089910E948F15C017D107D1F7DF91CF916E
:102BC0001F910F910895EF92FF920F931F93CF9350
:102BD000DF93EC0100E010E07E0189910E948815EE
:102BE000F7018081882331F00F5F1F4F0039F1E03A
:102BF0001F0791F7DF91CF911F910F91FF90EF90F9
:102C00000895EF92FF920F931F93CF93DF93EC0100
:102C100000E010E07E0189910E948F15F70180810C
:102C2000882331F00F5F1F4F0039F1E01F0791F744
:102C3000DF91CF911F910F91FF90EF90089527E0C2
:102C4000209340091092600910926109FA01840FE3
:102C5000951F40E01FC02091B10951E027FF08C037
:102C600010926009109261094091B00912C050E0C1
:102C700020916009309161092617370760F35523C9
:102C800041F010924009109260091092610980E0B1
:102C900008954193E817F90751F7109240091092EF
:102CA00060091092610981E0089527E020934009AE
:102CB0001092600910926109FB01460F571F60E0F6
:102CC00021C02091B10971E027FF08C0109260096E
:102CD000109261096091B00912C070E02091600902
:102CE000309161092817390760F3772341F010927A
:102CF0004009109260091092610980E00895619383
:102D0000662349F0E417F50741F710924009109245
:102D100060091092610981E00895CF93DF93CDB7E8
:102D2000DEB72C97CDBFDEBFAE014F5F5F4F60E3D4
:102D300075E781E090E00E941F16882369F1898180
:102D40008130E9F018F0823039F523C0AE014F5FD1
:102D50005F4F60E375E784E090E00E941F168823D0
:102D6000D9F083E70E94B11464E070E0CE010196CF
:102D70000E94DD1488EE93E00E94140A0DC0AE019B
:102D80004F5F5F4F60E375E781E090E00E941F16A0
:102D900003C080E4809347062C96CDBFDEBFDF9151
:102DA000CF910895CF93DF93CDB7DEB76097CDBFB6
:102DB000DEBFAE014F5F5F4F60E375E781E090E0FB
:102DC0000E941F16882341F18981823419F08637C9
:102DD00019F50EC080916B2090916C20892F0E9474
:102DE000881580916B2090916C200E94881514C0EA
:102DF00086E70E946014AE014F5F5F4F60E375E7A6
:102E000088E090E00E947B14882331F068E070E055
:102E1000CE0101960E94BB156096CDBFDEBFDF914B
:102E2000CF9108951F920F920FB60F9211240BB6F7
:102E30000F921BBE2F933F934F935F936F937F939C
:102E40008F939F93AF93BF93EF93FF938091B009BC
:102E5000833409F128F4813441F0823439F50AC011
:102E60008635F9F0823711F510C086E290E20E94B3
:102E7000E3151CC060E080E090E00E943C288FE7F2
:102E80009EE30197F1F700C0000061E089E790E060
:102E90000E9459030BC081E40E9488150E948D1680
:102EA00005C081E40E9488150E94D216FF91EF911F
:102EB000BF91AF919F918F917F916F915F914F9152
:102EC0003F912F910F900BBE0F900FBE0F901F9050
:102ED00018951F920F920FB60F9211240BB60F92F6
:102EE0001BBE2F933F934F935F936F937F938F936B
:102EF0009F93AF93BF93EF93FF9390919620809110
:102F00009520981303C01092942013C0E09196204E
:102F1000F0E0EF50FE4D80810E9488158091962050
:102F20008F5F8093962080919620883211F41092C2
:102F30009620FF91EF91BF91AF919F918F917F91DB
:102F40006F915F914F913F912F910F900BBE0F901A
:102F50000FBE0F901F90189580E88093A60887E910
:102F60008093A708089588E38093520688E08093B1
:102F70004506809341060E94AC1787E08093A50820
:102F800088E18093A40884E08093A3080895909139
:102F9000A10895FFFCCF9091A40891609093A4089C
:102FA0008093A00808959091A10895FFFCCF90917F
:102FB000A4089E7F9093A4088093A0080895CF93BF
:102FC000DF931F92CDB7DEB703C08091A00889833D
:102FD0008091A10887FDF9CF0F90DF91CF910895DF
:102FE0000F931F93CF93DF938B01EC01080F191FF1
:102FF00003C089910E94D317C017D107D1F7DF9181
:10300000CF911F910F91089527E02093000B10920C
:10301000200B1092210BFA01840F951F40E01FC076
:103020002091A10851E027FF08C01092200B1092B8
:10303000210B4091A00812C050E02091200B30914C
:10304000210B2617370760F3552341F01092000B30
:103050001092200B1092210B80E008954193E81705
:10306000F90751F71092000B1092200B1092210BD0
:1030700081E00895E0919820F0E0E75EFD4D8083C7
:10308000809198208F5F809398208091982088323B
:1030900011F41092982080919720811116C081E040
:1030A00080939720E0919920F0E0E75EFD4D8081CC
:1030B0000E94D317809199208F5F809399208091EF
:1030C0009920883211F41092992008950F931F933C
:1030D000CF93DF938B01EC01080F191F03C0899177
:1030E0000E943A18C017D107D1F7DF91CF911F91F5
:1030F0000F910895EF92FF920F931F93CF93DF9359
:10310000EC0100E010E07E0189910E943A18F7017D
:103110008081882331F00F5F1F4F0039F1E01F07D6
:1031200091F7DF91CF911F910F91FF90EF9008954C
:103130001F920F920FB60F9211240BB60F921BBE67
:103140002F933F934F935F936F937F938F939F93AF
:10315000AF93BF93EF93FF93909199208091982024
:10316000981303C01092972013C0E0919920F0E0CB
:10317000E75EFD4D80810E94D317809199208F5F7B
:103180008093992080919920883211F4109299208F
:10319000FF91EF91BF91AF919F918F917F916F912F
:1031A0005F914F913F912F910F900BBE0F900FBEEB
:1031B0000F901F9018958EE28093A60B88E980935C
:1031C000A70B089588E38093B20688E08093A50654
:1031D0008093A1060E94DB18E5EAFBE08081836012
:1031E0008083E4EAFBE0808188618083E3EAFBE09E
:1031F00080818461808360E180E090E00C943C28D1
:103200009091A10B95FFFCCF8093A00B0895E091C6
:103210009D20F0E0EF5BFD4D808380919D208F5FCE
:1032200080939D2080919D20873811F410929D20DD
:1032300080919C20811116C081E080939C20E091B8
:103240009E20F0E0EF5BFD4D80810E94001980918F
:103250009E208F5F80939E2080919E20873811F45E
:1032600010929E200895EF92FF920F931F93CF9399
:10327000DF93EC0100E010E07E0189910E940019CB
:10328000F7018081882331F00F5F1F4F0039F1E093
:103290001F0791F7DF91CF911F910F91FF90EF9052
:1032A0000895EF92FF920F931F93CF93DF93EC015A
:1032B00000E010E07E0189910E940719F7018081EA
:1032C000882331F00F5F1F4F0039F1E01F0791F79E
:1032D000DF91CF911F910F91FF90EF9008950F9381
:1032E0001F93CF93DF938B01EC01080F191F03C0CD
:1032F00089910E940719C017D107D1F7DF91CF91AB
:103300001F910F9108950F931F93CF93DF938B011C
:10331000EC01080F191F03C089910E940019C01702
:10332000D107D1F7DF91CF911F910F91089527E039
:103330002093000A1092200A1092210AFA01840FA9
:10334000951F40E01FC02091A10B51E027FF08C04E
:103350001092200A1092210A4091A00B12C050E056
:103360002091200A3091210A2617370760F3552350
:1033700041F01092000A1092200A1092210A80E077
:1033800008954193E817F90751F71092000A109237
:10339000200A1092210A81E0089527E02093000A74
:1033A0001092200A1092210AFB01460F571F60E07D
:1033B00021C02091A10B71E027FF08C01092200AC4
:1033C0001092210A6091A00B12C070E02091200A97
:1033D0003091210A2817390760F3772341F01092C2
:1033E000000A1092200A1092210A80E00895619349
:1033F000662349F0E417F50741F71092000A10928E
:10340000200A1092210A81E0089580919A20882351
:1034100031F080919A20815080939A2008951092E3
:103420009B2008951F93CF93DF93EC01162F82E02A
:103430000E940719812F0E940719612F70E0CE01A9
:103440000E946F19612F70E0CE010E94CE03C82F39
:10345000892F0E9407198C2F0E94071983E0DF91A2
:10346000CF911F910C940719CF93DF93CDB7DEB79F
:10347000C158D109CDBFDEBF2FEF29831A8260E08A
:10348000262F30E0FC01E20FF31F4081E3E0F0E083
:10349000EC0FFD1FE20FF31F4083411106C06E5F6A
:1034A000CE0101960E94121A04C06F5F603841F786
:1034B000F6CFCF57DF4FCDBFDEBFDF91CF9108955D
:1034C0009F92AF92BF92CF92DF92EF92FF920F93B3
:1034D0001F93CF93DF93CDB7DEB7C556D109CDBFCC
:1034E000DEBF5C01FC018081823009F4FFC030F452
:1034F000882359F0813009F0CEC118C0813409F415
:1035000091C1803709F0C7C192C160E080E090E0CE
:103510000E943C288FE79EE30197F1F700C000006E
:1035200061E089E790E00E945903B5C1F50111817E
:10353000113009F45FC038F0123009F496C014302D
:1035400009F0A9C1CFC08FE990E20E94340D2DECA3
:103550003CEC4CE45EE360919F207091A020809150
:10356000A1209091A2200E944B1D20E030E04AE76C
:1035700054E40E943F1F0E94241E19827A836B83A9
:1035800020E030E04AE754E46091A3207091A42049
:103590008091A5209091A6200E943F1F0E94241E8A
:1035A0007C836D8320E030E048EC52E46091A720FA
:1035B0007091A8208091A9209091AA200E943F1F7D
:1035C0000E941F1E262F7E832F8320E030E048ECD0
:1035D00052E46091AB207091AC208091AD2090912D
:1035E000AE200E943F1F0E941F1E262F788729872A
:1035F00069E038C0609108207091092080910A200C
:1036000090910B200E941F1E062FB72EA82E992ED8
:1036100060910420709105208091062090910720F0
:103620000E941F1EF62EE72ED82EC92E609165200F
:1036300070916620809167209091682020E030E4AE
:103640004CE156E40E943F1F0E94241E19839A8277
:10365000AB82BC820D83CE82DF82E886F9867A87D0
:103660006B876BE0CE010196DAC08FEA90E20E9490
:103670009D0F19838091AF208A838091B2208B8324
:103680008091B5208C838091B8208D838091BB2060
:103690008E838091BE208F838091B0209091B12045
:1036A000988789878091B3209091B4209A878B87DF
:1036B0008091B6209091B7209C878D878091B9200A
:1036C0009091BA209E878F878091BC209091BD20D9
:1036D000988B898B8091BF209091C0209A8B8B8B87
:1036E00063E1C0CFA6961FAFA69795C0F501818173
:1036F000882321F0813009F08AC03FC0F501728132
:1037000060E08381682B882777FD8095982F0E9441
:10371000521E20E030E048EC52E40E94B71D7B01CD
:103720008C0120E030E040E050E47F2D912F0E949A
:103730003B1F18166CF020E030E040E050EC6E2D9E
:103740007F2D802F912F0E94B01D87FD06C009C0DC
:10375000E12CF12C00E010E404C0E12CF12C00E09D
:1037600010EC6E2D7F2D802F912F0E944D0C60E06C
:10377000F50184810E94E40C4AC0F5018681C7806E
:10378000D12CE12CF12C7601DD24CC24F82A818582
:10379000C82A8085D82A128500E08385082B2281DB
:1037A0006381862F90E0A0E0B0E077276627922B18
:1037B0002581622B2481722B0E94521E6093082067
:1037C0007093092080930A2090930B20C701B601C3
:1037D0000E94521E6093042070930520809306205F
:1037E00090930720B80180E090E00E94501E20E0F6
:1037F00030E44CE156E40E94B71DAB01BC0140939C
:1038000065205093662060936720709368208EEF48
:10381000A6968FAFA69761E0CE018B599F4F0E946D
:10382000121A39C086E290E20E94341A34C0C09065
:103830000020D0900120E0900220F09003204091E1
:1038400004205091052060910620709107208091FE
:10385000082090910920A0910A20B0910B20FF929E
:10386000EF92DF92CF927F936F935F934F93BF93CB
:10387000AF939F938F938EE290E29F938F938E01ED
:103880000F5F1F4F1F930F930E948827C8010E944C
:10389000341ACDBFDEBFCB59DF4FCDBFDEBFDF91C6
:1038A000CF911F910F91FF90EF90DF90CF90BF903D
:1038B000AF909F9008951F920F920FB60F92112410
:1038C0000BB60F921BBE1F932F933F934F935F93A3
:1038D0006F937F938F939F93AF93BF93CF93DF9318
:1038E000EF93FF9312E08091A10B87FF60C080915E
:1038F000A00B90919B209230F1F030F4992359F075
:10390000913009F051C014C0943079F158F19530DC
:1039100009F04AC02DC0823009F046C090919B202A
:103920009F5F90939B2080939A201092C120DBCFC1
:103930008093C2200FC09091C120E92FF0E0ED5399
:10394000FF4D8083892F8F5F8093C1209091C2208B
:10395000891305C080919B208F5F80939B201093DB
:103960009A20C1CF80934F21F5CF80935021F2CF81
:103970008330D1F46091C22070E083EC90E20E9429
:10398000CE0320914F21D22F40E0C42F209150210F
:10399000AE01422B9A018217930731F46091C22045
:1039A00083EC90E20E94601A10929B209CCFFF91C2
:1039B000EF91DF91CF91BF91AF919F918F917F91C7
:1039C0006F915F914F913F912F911F910F900BBE7F
:1039D0000F900FBE0F901F9018951F920F920FB669
:1039E0000F9211240BB60F921BBE2F933F934F9350
:1039F0005F936F937F938F939F93AF93BF93EF9357
:103A0000FF9390919E2080919D20981303C0109267
:103A10009C2013C0E0919E20F0E0EF5BFD4D808183
:103A20000E94001980919E208F5F80939E2080913C
:103A30009E20873811F410929E20FF91EF91BF9144
:103A4000AF919F918F917F916F915F914F913F9136
:103A50002F910F900BBE0F900FBE0F901F901895D7
:103A60000E94510B0E942C0660E081E70E94E40C4A
:103A7000CAE0D1E0C093932145E650E264E070E2F1
:103A800088E090E20E947404D093470680919321CD
:103A90008111FCCFEFCF5058BB27AA270ED0A0C171
:103AA00069D130F06ED120F031F49F3F11F41EF453
:103AB0005EC10EF4E095E7FB54C1E92FB3D180F36A
:103AC000BA17620773078407950718F071F49EF51B
:103AD000CBC10EF4E0950B2EBA2FA02D0B01B9012E
:103AE00090010C01CA01A0011124FF27591B99F074
:103AF000593F50F4503E68F11A16F040A22F232F80
:103B0000342F4427585FF3CF469537952795A795CF
:103B1000F0405395C9F77EF41F16BA0B620B730B76
:103B2000840BBAF09150A1F0FF0FBB1F661F771FE7
:103B3000881FC2F70EC0BA0F621F731F841F48F49C
:103B4000879577956795B795F7959E3F08F0B3CF22
:103B50009395880F08F09927EE0F9795879508950C
:103B6000DCD008F481E0089514D1E3954AC10CD06B
:103B700037C107D140F0FED030F021F45F3F19F09B
:103B8000F0C0511172C1F3C04DD198F39923C9F31C
:103B90005523B1F3951B550BBB27AA276217730753
:103BA000840738F09F5F5F4F220F331F441FAA1F07
:103BB000A9F333D00E2E3AF0E0E830D091505040C7
:103BC000E695001CCAF729D0FE2F27D0660F771F75
:103BD000881FBB1F261737074807AB07B0E809F057
:103BE000BB0B802DBF01FF2793585F4F2AF09E3FEC
:103BF000510568F0B6C039C15F3FECF3983EDCF385
:103C0000869577956795B795F7959F5FC9F7880F64
:103C1000911D9695879597F90895E1E0660F771FB6
:103C2000881FBB1F621773078407BA0720F0621B47
:103C3000730B840BBA0BEE1F88F7E095089504D040
:103C40006894B11112C10895F5D088F09F5790F093
:103C5000B92F9927B751A0F0D1F0660F771F881FB1
:103C6000991F1AF0BA95C9F712C0B13081F0FCD093
:103C7000B1E00895F9C0672F782F8827B85F39F031
:103C8000B93FCCF3869577956795B395D9F73EF410
:103C900090958095709561957F4F8F4F9F4F0895B8
:103CA000E89409C097FB3EF49095809570956195D6
:103CB0007F4F8F4F9F4F9923A9F0F92F96E9BB278C
:103CC0009395F695879577956795B795F111F8CF08
:103CD000FAF4BB0F11F460FF1BC06F5F7F4F8F4F73
:103CE0009F4F16C0882311F096E911C0772321F069
:103CF0009EE8872F762F05C0662371F096E8862F01
:103D000070E060E02AF09A95660F771F881FDAF757
:103D1000880F9695879597F90895990F0008550F84
:103D2000AA0BE0E8FEEF16161706E807F907C0F041
:103D300012161306E407F50798F0621B730B840B49
:103D4000950B39F40A2661F0232B242B252B21F423
:103D500008950A2609F4A140A6958FEF811D811DC3
:103D6000089597F99F6780E870E060E008959FEFFD
:103D700080EC089500240A94161617061806090602
:103D8000089500240A9412161306140605060895D1
:103D9000EECF50D0E8F3E894E0E0BB279F57F0F077
:103DA0002AED3FE049EC06C0EE0FBB0F661F771F00
:103DB000881F28F0B23A62077307840728F0B25AC6
:103DC000620B730B840BE3959A9572F7803830F48D
:103DD0009A95BB0F661F771F881FD2F790481CC1AA
:103DE000092E0394000C11F4882352F0BB0F40F409
:103DF000BF2B11F460FF04C06F5F7F4F8F4F9F4F49
:103E00000895EF93E0FF06C0A2EA2AED3FE049ECF7
:103E10005FEB53DEE5DF0F90039401FC9058E8EE72
:103E2000F1E00DC157FD9058440F551F59F05F3F09
:103E300071F04795880F97FB991F61F09F3F79F0CC
:103E400087950895121613061406551FF2CF46954E
:103E5000F1DF08C0161617061806991FF1CF8695D0
:103E60007105610508940895E894BB2766277727B4
:103E7000CB0197F9089551DF08F48FEF08950BD027
:103E8000AFCF78DF28F07DDF18F0952309F069CFF8
:103E90006ECF1124EACFC6DFA0F3959FD1F3950F23
:103EA00050E0551F629FF001729FBB27F00DB11DBE
:103EB000639FAA27F00DB11DAA1F649F6627B00D4E
:103EC000A11D661F829F2227B00DA11D621F739F37
:103ED000B00DA11D621F839FA00D611D221F749F45
:103EE0003327A00D611D231F849F600D211D822F8C
:103EF000762F6A2F11249F5750408AF0E1F08823D3
:103F00004AF0EE0FFF1FBB1F661F771F881F9150DF
:103F10005040A9F79E3F510570F023CFA6CF5F3FD9
:103F2000ECF3983EDCF3869577956795B795F79512
:103F3000E7959F5FC1F7FE2B880F911D969587959A
:103F400097F908959F9325DF0F9007FCEE5F59CFF7
:103F500011F40EF40CCF5EC06DDFD0F39923D9F3CA
:103F6000CEF39F57550B87FF63D00024A0E640EAAD
:103F7000900180585695979528F4805C660F771FBE
:103F8000881F20F026173707480730F4621B730B91
:103F9000840B202931294A2BA695179407942025B4
:103FA00031254A2758F7660F771F881F20F02617FC
:103FB0003707480730F4620B730B840B200D311D5B
:103FC000411DA09581F7B901842F9158880F9695CE
:103FD00087950895DF93D92FDCDEE695D7952AEDF6
:103FE0003FE049E45FE3B33A62077307840795074C
:103FF000D7952AF0A2EA49EC90685FDDF1DEE6E0B1
:10400000F2E01DD0DD0F0BF02BD0DD0F0BF490583C
:10401000DF9108959F3F31F0915020F48795779577
:104020006795B795880F911D9695879597F908958F
:1040300091505040660F771F881FD2F708959F93C5
:104040008F937F936F93FF93EF939B01AC0117DFE7
:10405000EF91FF910CD02F913F914F915F910FCF36
:104060009B01AC0160E070E080E89FE380CDDF93CE
:10407000CF931F930F93FF92EF92DF927B018C01FE
:10408000689405C0DA2EEF0106DFFE01E894A591E1
:104090002591359145915591AEF3EF010EDDFE016D
:1040A0009701A801DA9479F7DF90EF90FF900F91D4
:1040B0001F91CF91DF9108952F923F924F925F927F
:1040C0006F927F928F929F92AF92BF92CF92DF9228
:1040D000EF92FF920F931F93CF93DF93CDB7DEB78D
:1040E0006397CDBFDEBF7C015B018A01FC011682B4
:1040F0001782838181FD03C06DC3860105C08824BA
:104100008394912C8C0E9D1EF7019381F50193FDF4
:10411000859193FF81915F01882309F457C385320C
:1041200039F493FD859193FF81915F01853231F4DC
:10413000B70190E00E945C276801DFCF412C512C31
:1041400020E02032A8F48B3261F028F4803251F064
:10415000833271F40BC08D3239F0803349F4216021
:1041600028C02260246025C0286023C0206121C0AF
:1041700027FD27C0382F30533A3078F426FF06C089
:10418000FAE04F9E300D1124432E13C08AE0589E52
:10419000300D1124532E20620CC08E3221F426FDE6
:1041A00015C3206406C08C3611F4206802C088361E
:1041B00041F4F50193FD859193FF81915F01811198
:1041C000C0CF982F9554933018F42061805E06C0BC
:1041D000982F9556933008F0A1C12F7E26FD02C07E
:1041E00056E0452E4FE3742E7222853619F4F0E422
:1041F0007F2A07C0863619F420E8722A02C04110CF
:104200004A9477FE07C03BE3341548F0342C3394CE
:1042100027E00DC087E0841530F0242D07C027E08B
:104220003CE3332E04C027E097E0492E312C68018F
:1042300094E0C90ED11CF801608171818281938163
:10424000032DA4010E946E268C0129812C8720FF5A
:1042500002C023FF07C071FC08C072FE09C080E2E3
:10426000682E07C0BDE26B2E04C0ABE26A2E01C00F
:10427000612C8C858C70A1F1662011F084E001C066
:1042800083E0851510F0512C0BC0581A73FC08C040
:10429000B70180E290E00E945C275A94C9F7F3CFFF
:1042A000662029F0B701862D90E00E945C273C85AE
:1042B00033FD03C009E514E00CC005E514E009C0B6
:1042C00071108052B70190E00E945C270F5F1F4F72
:1042D00002C080E17822F80184918111F1CF73C28C
:1042E00077FE0EC0300E2C8524FF04C08A818133F6
:1042F00009F43A9413144CF538E0331548F12CC006
:1043000076FC2AC0242D30E02017310744F00C3F02
:104310008FEF180724F090E8792A01C04A944420CE
:1043200049F0E2E0F0E0EC0FFD1FE40DF11D8081AB
:104330008033A1F377FE10C0342C3394242D30E069
:104340000217130744F4401A07C03324339404C0FF
:10435000F8E03F2E01C0412C77FE07C01016110671
:104360003CF498012F5F3F4F05C025E030E002C0CC
:1043700021E030E0662011F02F5F3F4F442031F004
:10438000442D50E04F5F5F4F240F351F452D50E007
:104390002417350714F4521A01C0512C872D897047
:1043A00049F406C0B70180E290E00E945C275A946D
:1043B0005110F8CF662029F0B701862D90E00E94B9
:1043C0005C2773FC09C006C0B70180E390E00E943F
:1043D0005C275A945110F8CF77FE53C0380117FF6D
:1043E00002C0612C712C1D861E869801231931098B
:1043F0002F87388B180126183708280C391C642D94
:1044000070E022273327261B370B298B3A8B3FEF8F
:104410006316730629F4B7018EE290E00E945C27D0
:10442000061517055CF02F8538892615370534F4F5
:10443000ED85FE85E20DF31D818101C080E331E051
:10444000631A71082D853E852F5F3F4F2D873E876C
:1044500029893A89621673062CF0B70190E00E9410
:104460005C27D5CF6016710649F49A81963328F4FB
:10447000953321F43C8534FD01C081E3B70190E020
:104480004AC08A81813319F02C852F7E2C87B70191
:1044900090E00E945C27411005C074FE16C085E4C0
:1044A00090E015C0B7018EE290E00E945C27E2E048
:1044B0006E2EF401E60DF11D6394B701808190E04A
:1044C0000E945C274A94A9F7E8CF85E690E0B701FF
:1044D0000E945C2717FD06C00115110541F43C85BB
:1044E00034FF05C01195019511098DE201C08BE2E1
:1044F000B70190E00E945C2780E303C08F5F0A5001
:1045000011090A301105D4F7B70190E00E945C2729
:10451000B701C801C0960E945C2755C1833631F0AF
:10452000833781F0833509F05EC024C0680182E0E2
:10453000C80ED11CF8018081898366246394712C94
:10454000840114C06801F2E0CF0ED11CF801008193
:10455000118126FF03C0642D70E002C06FEF7FEF72
:10456000C8012B8B0E9451273C012B896FE7462EF7
:10457000422217C06801F2E0CF0ED11CF801008181
:10458000118126FF03C0642D70E002C06FEF7FEF42
:10459000C8012B8B0E9446273C012B8950E8452EF1
:1045A000422A43FC1CC006C0B70180E290E00E9492
:1045B0005C275A94852D90E068167906A8F30FC001
:1045C000F80147FC859147FE81918F01B70190E08A
:1045D0000E945C2751105A94F1E06F1A710861141F
:1045E000710471F7F0C0843611F0893661F5680105
:1045F00027FF09C034E0C30ED11CF801608171812E
:10460000828193810AC0F2E0CF0ED11CF801608153
:104610007181882777FD8095982F4FE6742E72223E
:1046200097FF09C090958095709561957F4F8F4F4A
:104630009F4FF0E87F2A2AE030E0A4010E94DE27A5
:10464000682E681847C0853731F43FEE732E72220A
:104650002AE030E024C099EF792E72228F36B9F02B
:1046600020F4883509F0B2C00DC0803721F08837BA
:1046700009F0ACC002C020E1722A74FE0BC034E025
:10468000732A08C024FF09C086E0782A06C028E003
:1046900030E005C020E130E002C020E132E06801F6
:1046A00077FE09C094E0C90ED11CF80160817181C8
:1046B0008281938108C0F2E0CF0ED11CF8016081A5
:1046C000718180E090E0A4010E94DE27682E6818C6
:1046D000FFE77F2276FE0BC0072D0E7F641450F497
:1046E00074FE0AC072FC08C0072D0E7E05C0162D90
:1046F000072D03C0162D01C0142D04FF0CC0FE01B0
:10470000E60DF11D8081803311F4097E08C002FF9F
:1047100005C01E5F04C0802F867809F01F5F03FD6F
:1047200012C000FF0DC0462C151550F4450C411A5F
:10473000152D06C0B70180E290E00E945C271F5F44
:104740001515C0F304C0151510F4511A01C0512CF1
:1047500004FF10C0B70180E390E00E945C2702FFD5
:104760001EC001FF03C088E590E002C088E790E02A
:10477000B7010CC0802F867891F001FD02C080E265
:1047800001C08BE207FD8DE2B70190E00E945C273B
:1047900006C0B70180E390E00E945C274A9464144D
:1047A000C0F36A94F401E60DF11DB701808190E039
:1047B0000E945C276110F5CF06C0B70180E290E04F
:1047C0000E945C275A945110F8CF97CCF7012681AC
:1047D000378102C02FEF3FEFC9016396CDBFDEBF27
:1047E000DF91CF911F910F91FF90EF90DF90CF90CD
:1047F000BF90AF909F908F907F906F905F904F9001
:104800003F902F900895DB018F939F930E942F2458
:10481000BF91AF91A29F800D911DA39F900DB29F5C
:10482000900D11240895052E97FB16F4009407D0DF
:1048300057FD0DD00E943A2407FC09D07EF49095D4
:104840008095709561957F4F8F4F9F4F089550953C
:104850004095309521953F4F4F4F5F4F08950E94EF
:104860005C24A59F900DB49F900DA49F800D911D79
:1048700011240895A1E21A2EAA1BBB1BFD010DC035
:10488000AA1FBB1FEE1FFF1FA217B307E407F50700
:1048900020F0A21BB30BE40BF50B661F771F881FDC
:1048A000991F1A9469F760957095809590959B0172
:1048B000AC01BD01CF010895A29FB001B39FC0011B
:1048C000A39F01D0B29F700D811D1124911D0895E9
:1048D000FB01DC01CA012C9130813D9321930197AA
:1048E00018161906C4F30895CF92DF92EF92FF9243
:1048F0000F931F93CF93DF936C018B017A01E90132
:10490000F9011995B70197FF0CC0C801FE0119956F
:1049100097FD16C0B701C601FE01199597FF0DC09E
:104920000EC0C801FE011995181619064CF0B70102
:10493000C601FE01199597FF02C0860101C08701DB
:10494000C801DF91CF911F910F91FF90EF90DF9001
:10495000CF9008952F923F924F925F926F927F92E5
:104960008F929F92AF92BF92CF92DF92EF92FF927F
:104970000F931F93CF93DF93CDB7DEB72897CDBFAB
:10498000DEBF8C016B014F83588759014B835C83D9
:1049900027E0C216D10490F58F809884800E911E76
:1049A0004F815885C49E3001C59E700CD49E700CFA
:1049B0001124600E711E1CC04F815885B601C701BD
:1049C0000E94682476010E151F0528F06F817885F6
:1049D000860E971E0DC067018F819885C81AD90A67
:1049E000B701C601F5011995181619062CF3EECF7B
:1049F0008614970408F05CC17401E5CFC601969552
:104A000087952F813885829F7001839FF00C929F3C
:104A1000F00C1124E00EF11E37E0C316D10409F4A6
:104A200050C0C60101974F815885849F4001859FE2
:104A3000900C949F900C1124800E911E59E2C51683
:104A4000D104B8F1C60123E0969587952A95E1F740
:104A50006F817885869F3001879F700C969F700CC0
:104A600011242301440C551CA801440D551DB80107
:104A7000660D771D9501C8010E9474241C01A701D1
:104A8000460D571D7194619471089501B701C701D6
:104A9000860D971D0E9474247C01B401660D771D5C
:104AA0009501A401C401841995090E9474244C0144
:104AB00001C018019501A401B701C1010E9474242D
:104AC0007C014B815C81B701C8010E9468242F8062
:104AD0003884200E311EC6010197EF81F8858E9F24
:104AE00030018F9F700C9E9F700C1124600E711E00
:104AF00043017101210120E030E012C0892B61F4F3
:104B00004B815C81B701C2010E9468242F813885E6
:104B1000420E531E21E030E04F815885E40EF51E11
:104B20008E149F04E0F0B801C7012D833E83F50188
:104B300019952D813E81181619068CF0DFCF892B2F
:104B400061F44B815C81B301C4010E9468242F8110
:104B50003885621A730A21E030E089809A808E14C9
:104B60009F0408F498C0B801C4012D833E83F50169
:104B70001995A4016F817885461B570B49835A8389
:104B80002D813E8197FFDBCF77C03801680E791EFB
:104B900041011CC04B815C81B601C7010E946824A1
:104BA00076010E151F0528F08F819885880E991EB5
:104BB0000DC06701EF81F885CE1ADF0AB701C60183
:104BC000F5011995181619062CF3EECF86149704E3
:104BD00008F06EC07401E5CF9801280F391F2983B2
:104BE0003A83170124183508A201401B510B2416E3
:104BF00035060CF4A1011416150634F4B701641B34
:104C0000750BC8010E9468246301C818D90849813E
:104C10005A81461957096F817885461B570BC41670
:104C2000D50608F4A601141615063CF469817A81AC
:104C3000641B750BC7010E9468248F8198858215BB
:104C4000930558F4C1016F8178850E945F28950112
:104C50004F815885C8010E94AA24EF81F885EC1580
:104C6000FD0530F509811A810C191D09C601BF0126
:104C70000E945F286B018CCE4B815C81B401C7011F
:104C80000E9468242F813885E20EF31E89809A8065
:104C900021E030E045CF4F815885C49EC001C59EBC
:104CA000900DD49E900D1124232B09F095CF6DCF3C
:104CB0002896CDBFDEBFDF91CF911F910F91FF905E
:104CC000EF90DF90CF90BF90AF909F908F907F90AC
:104CD0006F905F904F903F902F900895283008F08C
:104CE00027E03327DA01990F311D87FD9160009687
:104CF0006105710539F432602E5F3D9330E32A95EA
:104D0000E1F708959F3F30F080387105610509F0A3
:104D10003C5F3C5F3D93913008F08068911DDF93CC
:104D2000CF931F930F93FF92EF92192F987F969531
:104D3000E92F96959695E90FFF27E954FB4F9927A0
:104D40003327EE24FF24A701E70105900894079478
:104D500028F4360FE71EF81E491F511D660F771FF6
:104D6000881F991F0694A1F70590079428F4E70E71
:104D7000F81E491F561FC11D770F881F991F661FF8
:104D80000694A1F70590079428F4F80E491F561FC2
:104D9000C71FD11D880F991F661F771F0694A1F7A3
:104DA0000590079420F4490F561FC71FD81F990F6D
:104DB000661F771F881F0694A9F7849110951770B6
:104DC00041F0D695C79557954795F794E7941A956E
:104DD000C1F7EDE5F4E06894159015913591659172
:104DE000959105907FE27395E118F10A430B560BFC
:104DF000C90BD009C0F7E10CF11E431F561FC91F94
:104E0000D01D7EF4703311F48A95E6CFE8940150FA
:104E100030F0080F0AF40027021708F4202F23951A
:104E2000022F7A3328F079E37D932A95E9F710C0B1
:104E30007D932A9589F606949795679537951795EA
:104E40001794E118F10A430B560BC90BD00998F0DF
:104E500023957E9173957A3308F070E37C93201349
:104E6000B8F77E9170617D9330F0839571E37D9307
:104E700070E32A95E1F71124EF90FF900F911F91B5
:104E8000CF91DF91992787FD90950895FC010590BA
:104E9000615070400110D8F7809590958E0F9F1F3C
:104EA0000895FC016150704001900110D8F7809581
:104EB00090958E0F9F1F08950F931F93CF93DF93AD
:104EC0008C01EB018B8181FD03C00FEF1FEF1AC036
:104ED00082FF0DC02E813F818C819D81281739076B
:104EE00064F4E881F9810193E883F98306C0E885D9
:104EF000F985802F1995892B41F78E819F81019625
:104F00008E839F83C801DF91CF911F910F910895E8
:104F10000F931F93CF93DF93CDB7DEB76097CDBFCD
:104F2000DEBF088D198D86E08C8309831A838FEF8D
:104F30009FE78D839E83AE01445E5F4F4F87588B02
:104F40006A8D7B8DCE0101960E945C20EF81F885F1
:104F5000E00FF11F10826096CDBFDEBFDF91CF91D1
:104F60001F910F9108950F931F93CF93DF93CDB7A8
:104F7000DEB76097CDBFDEBF088D198D8EE08C83C4
:104F800009831A838FEF9FE78D839E83AE01445E72
:104F90005F4F4F87588B6A8D7B8DCE0101960E94A3
:104FA0005C20EF81F885E00FF11F10826096CDBF85
:104FB000DEBFDF91CF911F910F910895FA01AA27CB
:104FC000283051F1203181F1E8946F936E7F6E5F4C
:104FD0007F4F8F4F9F4FAF4FB1E03ED0B4E03CD0FA
:104FE000670F781F891F9A1FA11D680F791F8A1FDD
:104FF000911DA11D6A0F711D811D911DA11D20D044
:1050000009F468943F912AE0269F11243019305DFD
:105010003193DEF6CF010895462F4770405D4193EE
:10502000B3E00FD0C9F7F6CF462F4F70405D4A333B
:1050300018F0495D31FD4052419302D0A9F7EACF03
:10504000B4E0A6959795879577956795BA95C9F732
:1050500000976105710508959B01AC010A2E069425
:105060005795479537952795BA95C9F7620F731FDE
:10507000841F951FA01D0895262FE0ECF1E03785D1
:1050800037FDFDCF3485377F3487378531FF09C041
:1050900036E3328738ED34BF31E03387378537FD6B
:1050A000FDCF33E33287808391831282248325E30B
:1050B000228728ED31E024BF338701960895AA1B8B
:1050C000BB1B51E107C0AA1FBB1FA617B70710F0F3
:1050D000A61BB70B881F991F5A95A9F78095909525
:0A50E000BC01CD010895F894FFCF44
:1050EA000000204100007A4400007A44010CFEF4DA
:1050FA00010CFEF4010CFEF4015265736574206420
:10510A006F6E65210A0048656C6C6F210A00583A77
:10511A0020252E306620593A20252E3066205354F9
:0A512A00443A20252E30660A0000EA
:00000001FF
