:04000000F6EF16F011
:1000080000C01FF001C01EF002C01DF003C01CF0AC
:1000180004C01BF005C01AF006C019F008C018F09B
:1000280009C017F00AC016F00BC015F0E1CF28F090
:10003800E2CF29F0E9CF26F0EACF27F0F3CF24F07A
:10004800F4CF25F0F5CF23F0F8CF20F0F7CF21F04B
:10005800F6CF22F054EC14F023C0F5FF20C0F8FFCF
:1000680021C0F7FF22C0F6FF24C0F3FF25C0F4FF2C
:100078001FC000F01EC001F01DC002F01CC003F03C
:100088001BC004F01AC005F019C006F018C008F02B
:1000980017C009F016C00AF015C00BF026C0E9FF1A
:0E00A80027C0EAFF28C0E1FF29C0E2FF1100D7
:1000B600000E056E040E066E2BC303F0000E046ED2
:1000C6000336043603900336043603902CC300F03F
:1000D600000E016E003601360090005003260150D6
:1000E600042203C001F004C002F00136019002367A
:1000F60001360190023601C003F002C004F004325A
:100106000332049E04BC048E04320332049E04BCF3
:10011600048E03C000F004C001F0003600900136E2
:10012600003600900136055000260650012200C018
:1001360005F001C006F000C0E1FF01C0E2FFE69E47
:1001460003012C51000A12E12BC300F0000E016ED0
:10015600003600900136E50E0024E16E000E012007
:10016600E26E05C0E6FF06C0E6FF11D02BC300F025
:10017600000E016E003600900136E00E0024E16E9E
:10018600000E0120E26E05C0E6FF06C0E6FF05C0D0
:10019600E1FF06C0E2FFE69C040E0524E16E000EB8
:0801A6000620E26EE68C120057
:0E01AE00800E03012B11006E00C0FFF0120046
:1001BC002BC3FCF02CC3FDF02DC300F12EC301F1B9
:1001CC00800E03012F11006E008000C0FFF01200A2
:1001DC002BC3FCF02CC3FDF02DC3FEF02EC300F19D
:1001EC002FC301F1800E03013011006E00C0FFF02F
:0201FC001200EF
:1001FE0020C401F01F0E01160150010AD8A41200EE
:10020E0004012451000AD8A412002151060A3AE131
:10021E002FD00001E451010A13E1800E03012B6F70
:10022E002F0E2C6F000E2D6F120E2B27000E2C236F
:10023E002D23090E2E6F000E2F6F400E306FC7DF6D
:10024E0021D00001E451010A0EE1A90E03012B6F2A
:10025E002F0E2C6F000E2D6F210E2E6F000E2F6F96
:10026E00400E306FB4DF0ED003012B6B99DF0AD036
:10027E0004012351210ACDE02351220AE2E0235149
:10028E00230AF2E020C401F0600E0116050E006E86
:10029E00005004E00132019EFF0FFBD70150010A0E
:1002AE00D8A4120027D039D038D0DF0E03012B6F1F
:1002BE00000E2C6F010E2D6F000E2E6F400E2F6F45
:1002CE0076DF2BD003012B6B6BDF23C4DFF025D041
:1002DE000301DA0E2B6F000E2C6F010E2D6F000E28
:1002EE002E6F2F6B64DF19D003012B6B59DF22C4E5
:1002FE00DAF013D004012151010AD5E02151090A87
:10030E00D3E02151020AD1E021510A0ADBE021514A
:0C031E00030ADEE021510B0AE7E01200A8
:10032A00700EE16E0F0EE26E03012651E126D8B07F
:10033A00E22A27C3E6FF27A504D026C32BF32C6B9A
:10034A00B5DE27A305D026C32BF3010E2C6FAEDE34
:02035A0012008F
:10035C0003012751000A12E026C300F0000E016EC3
:10036C00003600900136E00E0024E96E000E0120EC
:10037C00EA6EEECF04F0EECF05F011D026C300F0FC
:10038C00000E016E003600900136E50E0024E96E79
:10039C00000E0120EA6EEECF04F0EECF05F0020E57
:1003AC000424E16E000E0520E26E28C3E6FF29C38B
:1003BC00E6FF010E0424E16E000E0520E26E2AC356
:1003CC00E6FF04C0E9FF05C0EAFFEECF00F004C071
:1003DC00E1FF05C0E2FF400E0014E66E04C0E9FF29
:1003EC0005C0EAFFEECF00F004C0E1FF05C0E2FF5C
:1003FC00880E0010E66E2751000A1BE026C300F0A1
:10040C00000E016E003600900136E00E0024026EE4
:10041C00000E0120036E02C0E9FF03C0EAFF040EC8
:10042C00EE18006E02C0E1FF03C0E2FF00C0E6FF61
:10043C001AD026C300F0000E016E00360090013673
:10044C00E50E0024026E000E0120036E02C0E9FFCF
:10045C0003C0EAFF040EEE18006E02C0E1FF03C0F9
:10046C00E2FF00C0E6FF04C000F005C001F012007E
:10047C000101045315E0010E0301266F1E0E276FB8
:10048C004EDF010E266F276B05C128F306C129F339
:10049C00400E2A6F5DDF00C0FAF001C0FBF014D0F3
:1004AC000301010E266F1E0E276F39DF010E266F1A
:1004BC00276B05C128F306C129F3400E2A6F48DFCC
:0A04CC0000C0FAF001C0FBF01200BE
:0A04D6000101045301E090DE120062
:1004E000560E0C6EB50E0D6E0D2EFED70C2EFCD7D3
:0604F000000000001200F4
:0E04F600C70E0D6E0D2EFED700000000120086
:100504000B6A0A6A096A00500402F4CF09F0F3CFB7
:1005140008F001500502F4CF0BF0F3CF0AF00050BD
:100524000502F3500926F4500A22E86A0B2201500E
:100534000402F3500926F4500A22E86A0B2208C088
:1005440000F009C001F00AC002F00BC003F0120071
:100554000CD092DF3CD03BD0BCDF39D038D037D080
:1005640036D035D0000033D032D0000E030121192B
:1005740002E1010E2019EDE0000E211902E1020E44
:100584002019E9E0000E211902E1030E2019E4E02C
:100594002151000A02E1730E2019E0E02151000A02
:1005A40002E1750E2019DBE02151000A02E1740E0C
:1005B4002019D6E021513F0A02E1FF0E2019D1E0B3
:1005C4002151000A02E1720E2019CCE0CDD7010EB0
:0405D400006E1200A3
:1005D80020C302F021C303F023C300F024C301F0B9
:1005E800010E0301235F000E245B0050011009E097
:1005F80002C0E1FF03C0E2FF22C3E6FF024A032A6A
:04060800EBD712001A
:0E060C00030E0D6E0D2EFED700000000120032
:10061A0003011ABF02D0819601D081861ABD02D089
:10062A00819401D081841ABB02D0819201D0818247
:10063A001AB902D0819001D08180000160B102D044
:10064A00818801D08198818ADCDF819A03011AB7F7
:10065A0002D0819601D081861AB502D0819401D048
:10066A0081841AB302D0819201D081821AB102D058
:10067A00819001D08180000160B102D0818801D0CF
:10068A008198818ABEDF819A60A102D024DF01D0DD
:04069A002DDF12003E
:10069E000001FF8F710E0301206F0F0E216F226B71
:1006AE00010E236F000E246F90DFEC0E206F000EF4
:1006BE00216F226B010E236F000E246F86DF22C482
:1006CE00E4F00001E451000A03E1100E576E10D061
:1006DE00200E576E010E0301206F000E216FE40EE7
:1006EE00226F000E236F010E246F000E256F2BDF7D
:0206FE001200E8
:100700000401286B296B4AD00001FF8F0401288166
:100710000001ED51010A02E10401288354D00001D7
:10072000FF8F51D00001FF8F040124BF16D024C4D5
:1007300003F00F0E031603C000F0000E016E00362A
:1007400000900136E50E0024E96E000E0120EA6EED
:10075000EECF04F0EECF05F015D024C403F00F0E59
:10076000031603C000F0000E016E00360090013643
:10077000E00E0024E96E000E0120EA6EEECF04F0D8
:10078000EECF05F004C0E9FF05C0EAFFEECF01F0AF
:1007900001A403D00401010E286F15D020C401F07C
:1007A0001F0E01160150000AAFE020C401F01F0E19
:1007B00001160150010AB3E020C401F01F0E01161A
:1007C0000150020AAFE00001FFAF08D0280EFC6F15
:0E07D000040EFD6FFF81020E0101006F12008A
:1007DE00F250026EF29E0500FF6A0150FE6E00504E
:0807EE00FD6E02BEF28E120046
:1007F600000E0101015D02E1080E005D11E200C17B
:1008060003F001C104F00001F051000A03E1010EFA
:10081600F06F05D0F051010A02E1020EF06F04D02C
:10082600080E036E000E046E0001E0C0E1FFE1C099
:10083600E2FFE692E0C0E1FFE1C0E2FFE690E0C041
:10084600E9FFE1C0EAFFEECF00F0E0C0E1FFE1C062
:10085600E2FF04500010E66E010EE025E16E000E88
:10086600E121E26E03C0E6FF03500101005D006E68
:1008760004500159016E00C000F101C001F1280EBB
:100886000001E96F040EEA6FFFB12FD00350041088
:100896002BE0FCC0F6FFFDC0F7FFFEC0F8FF090025
:1008A600F5CF00F0E9C0E1FFEAC0E2FF00C0E6FFD5
:1008B600E94BEA2B010EFC25006E000EFD21016EB0
:1008C600000EFE21026E00C0FCF001C0FDF002C069
:1008D600FEF0010E035C006E000E0458016E00C0AF
:1008E60003F001C004F0D2D724D00350041021E055
:1008F600FCC0E9FFFDC0EAFFE9C0E1FFEAC0E2FF94
:10090600EECFE6FFE94BEA2B010EFC25006E000E4A
:10091600FD21016E00C0FCF001C0FDF0010E035C7C
:10092600006E000E0458016E00C003F001C004F012
:04093600DCD71200F8
:10093A0004012251010A13E120C401F01F0E01161D
:10094A000150000A0CE10001FF8F04012151030A42
:10095A0004E1010E0001ED6F02D00001ED6B04010C
:10096A002251000AD8A48BD020C401F01F0E011610
:10097A000150020AD8A483D024C401F00F0E011634
:10098A000150000AD8B47BD00001FF8F040124BFB4
:10099A0016D024C403F00F0E031603C000F0000E95
:1009AA00016E003600900136E50E0024E96E000E55
:1009BA000120EA6EEECF04F0EECF05F015D024C484
:1009CA0003F00F0E031603C000F0000E016E00368E
:1009DA0000900136E00E0024E96E000E0120EA6E56
:1009EA00EECF04F0EECF05F02151030A07E104C06F
:1009FA00E1FF05C0E2FF840EE66E41D024C400F098
:100A0A000F0E0016700E026E0F0E036E00500226B5
:100A1A00D8B0032A02C0E9FF03C0EAFFEECF00F014
:100A2A00EECF01F0009002C0E1FF03C0E2FF00C078
:100A3A00E6FF01C0E6FF24AF11D004C0E1FF05C004
:100A4A00E2FFE66A040E0418006E00C004F004C057
:100A5A00E1FF05C0E2FF400EE66E11D004C0E1FFDF
:100A6A0005C0E2FF880EE66E040E0418006E00C090
:100A7A0004F004C0E1FF05C0E2FFC80EE66E1200F2
:100A8A0004012051800AD8A479D0C00E0001FF6F5A
:100A9A006AD0E30E006E2F0E016E000E026E00C0C9
:100AAA00FCF001C0FDF002C0FEF0120E0101006F61
:100ABA00000E016F63D022C400F0000E016E030E17
:100ACA00046E000E056E19DD870E0024E96E000E15
:100ADA000120EA6EEECFFCF0EECFFDF0EECFFEF095
:100AEA00020E0001FC25F66E000EFD21F76E000EC7
:100AFA00FE21F86E0900F5CF00F00900F5CF01F0EC
:100B0A0000C000F101C001F139D0030E0401225DD9
:100B1A0024E222C400F0000E016E030E046E000EE1
:100B2A00056EEBDC8D0E0024E96E000E0120EA6EE4
:100B3A00EECFFCF0EECFFDF0EECFFEF0FCC0F6FFFC
:100B4A00FDC0F7FFFEC0F8FF0900F5CF00F000C0B6
:100B5A0000F1000E0101016F02D00001FF6B0ED0FF
:100B6A000001FF6B0BD004012351010A92E02351CB
:0E0B7A00020AA1E02351030AC8E0F2D71200DC
:100B88000B1E0A1E091E081E082AD8B4092AD8B442
:080B98000A2AD8B40B2A12004E
:100BA0000450085E0550D8A0053C095E0650D8A048
:100BB000063C0A5E0750D8A0073C0B5E0336070EC2
:100BC0000C6E0334083609360A360B36045003A07F
:100BD0000ED0085E0550D8A0053C095E0650D8A08E
:100BE000063C0A5E0750D8A0073C0B5E0DD00826D5
:100BF0000550D8B0053C09260650D8B0063C0A2658
:100C00000750D8B0073C0B2603360C2EDAD7023437
:100C1000083609360A360B36045003A00ED0085E9B
:100C20000550D8A0053C095E0650D8A0063C0A5ED7
:100C30000750D8A0073C0B5E0DD008260550D8B051
:100C4000053C09260650D8B0063C0A260750D8B005
:100C5000073C0B260236070E0C6E023408360936A6
:100C60000A360B36045002A00ED0085E0550D8A0FC
:100C7000053C095E0650D8A0063C0A5E0750D8A085
:100C8000073C0B5E0DD008260550D8B0053C092660
:100C90000650D8B0063C0A260750D8B0073C0B26B1
:100CA00002360C2EDAD70134083609360A360B36EE
:100CB000045002A00ED0085E0550D8A0053C095E85
:100CC0000650D8A0063C0A5E0750D8A0073C0B5E31
:100CD0000DD008260550D8B0053C09260650D8B0DE
:100CE000063C0A260750D8B0073C0B260136070EF3
:100CF0000C6E0134083609360A360B36045001A052
:100D00000ED0085E0550D8A0053C095E0650D8A05C
:100D1000063C0A5E0750D8A0073C0B5E0DD00826A3
:100D20000550D8B0053C09260650D8B0063C0A2626
:100D30000750D8B0073C0B2601360C2EDAD700340A
:100D4000083609360A360B36045001A00ED0085E6C
:100D50000550D8A0053C095E0650D8A0063C0A5EA6
:100D60000750D8A0073C0B5E0DD008260550D8B020
:100D7000053C09260650D8B0063C0A260750D8B0D4
:100D8000073C0B260036070E0C6E00340836093679
:100D90000A360B36045000A00ED0085E0550D8A0CD
:100DA000053C095E0650D8A0063C0A5E0750D8A054
:100DB000073C0B5E0DD008260550D8B0053C09262F
:100DC0000650D8B0063C0A260750D8B0073C0B2680
:100DD00000360C2EDAD700B00ED00450082605508D
:100DE000D8B0053C09260650D8B0063C0A26075064
:080DF000D8B0073C0B261200ED
:0E0DF8000001609119C31AF30CDC6081120037
:100E06000001EE6BE0C0E1FFE1C0E2FFE66A040E1E
:100E1600E019E16EE1C0E2FF000EE21AE66AF3AF06
:100E260014D0000E006EF91908E10050F81905E11A
:100E36000050F71902E1F651000A05E0F6C000F08D
:0C0E4600F7C001F0C9DC0001F39F1200AE
:100E52006D980001FFBF49D0F3AF28D0020EEE6FAC
:100E6200010EE025E16E000EE121E26EE66AE0C0CD
:100E7200E1FFE1C0E2FFC80EE66E010EDD25E16E84
:100E8200000EDE21E26E080EE66E020EDD25E16E38
:100E9200000EDE21E26E280EE66E040EE66EDDC066
:100EA200E1FFDEC0E2FFC80EE66E1ED0010EDD25B8
:100EB200E16E000EDE21E26E080EE66E020EDD2508
:100EC200E16E000EDE21E26E200EE66E040EE66E8C
:100ED200DDC0E1FFDEC0E2FF8C0EE66EE0C0E1FFA6
:100EE200E1C0E2FF840EE66E83D0F3BF81D004013D
:100EF20020AF56D0010101510401275D04E1010137
:100F020000510401265D04E226C400F127C401F168
:100F120071DC010E0001EE6F010EDD25E16E000EA7
:100F2200DE21E26E080EE66E020EDD25E16E000E97
:100F3200DE21E26E200EE66E040EE66EDDC0E1FFFB
:100F4200DEC0E2FF800EE66EEF6B010EDB25E16E86
:100F5200000EDC21E26E080EE66E020EDB25E16E6B
:100F6200000EDC21E26E200EE66E040EE66EDBC0A1
:100F7200E1FFDCC0E2FF840EE66E010EEF6F020EAF
:100F8200E025E16E000EE121E26E280EE66E040E0F
:100F9200E66EE0C0E1FFE1C0E2FFC80EE66E28D0D7
:100FA2000001020EEE6F010EE025E16E000EE1215E
:100FB200E26EE66AE0C0E1FFE1C0E2FFC80EE66E63
:100FC200010EDD25E16E000EDE21E26E080EE66EF8
:100FD200020EDD25E16E000EDE21E26E280EE66EC7
:100FE200040EE66EDDC0E1FFDEC0E2FFC80EE66E73
:020FF2001200EB
:100FF40020C401F0600E0116050E006E005004E0DE
:101004000132019EFF0FFBD70150000AD8A4120041
:101014004BD00001FF8F080E576E69D034DD67D0C6
:101024004FEC03F064D0E40E0001FC6F000EFD6F82
:10103400FF81010E0101006F0001FF8F58D080EC89
:1010440003F055D078DC53D0EC0E006E000E016E28
:10105400040124510026D8B0012A00C0FCF001C0CC
:10106400FDF00001FF81010E0101006F0001FF8FFF
:101074003ED00001FF8FEC0EE16E000EE26E040123
:101084002451E126D8B0E22A22C4E6FF30D0020E71
:101094000301206F000E216F226B236B246B256BE1
:1010A400AAEC02F024D023D004012151050AB1E0B6
:1010B4002151060AB3E02151090AB2E02151080A7C
:1010C400B2E02151000ABBE02151010ABBE02151E9
:1010D400030AB8E021510A0AB7E021510B0AC9E01A
:1010E4002151070AD4E021510C0ADDE0DCD71200BB
:1010F400010E0001DB25E96E000EDC21EA6EEECF65
:1011040000F000C01EF3000EF55D04E103011E5162
:101114000001F45D03E2F4C01EF30CD003011E5180
:101124000001F45D006E000EF559016E00C0F4F08C
:1011340001C0F5F003011F6B1E511F5D1EE2280E56
:10114400E96E040EEA6E1F51E926D8B0EA2AEECF02
:1011540000F0F1C0E1FFF2C0E2FF00C0E6FF010EC3
:101164000001F125006E000EF221016E00C0F1F0C5
:1011740001C0F2F003011F2BDFD7000E006E000147
:10118400F551005C02E1F451000828E2010EDD256E
:10119400E16E000EDE21E26E080EE66E020EDD2523
:1011A400E16E000EDE21E26E280EE66E040EE66E9F
:1011B400DBC0E9FFDCC0EAFFEECF00F000BC07D0E3
:1011C400DDC0E1FFDEC0E2FFC80EE66E06D0DDC082
:1011D400E1FFDEC0E2FF880EE66E2DD0010EDD25B4
:1011E400E16E000EDE21E26E080EE66E020EDD25D3
:1011F400E16E000EDE21E26E200EE66E040EE66E57
:10120400DDC0E1FFDEC0E2FF840EE66E000E006E7C
:10121400F91908E10050F81905E10050F71902E145
:10122400F651000A06E0F6C000F0F7C001F0EFEC5A
:0812340003F00001F39F12001A
:10123C00800E0001876F2F0E886F000E896F030ED2
:10124C008D6F300E8E6F000E8F6FF50E906F2F0E10
:10125C00916F000E926FCB0E936F2F0E946F000E4A
:04126C00956F120068
:1012700014C301F015C302F016C303F017C304F042
:1012800003C0E9FF04C0EAFFEE50000A0FE003C00C
:10129000E9FF04C0EAFF01C0E1FF02C0E2FFEECFB8
:1012A000E6FF014A022A034A042AEAD701C0E1FF05
:0812B00002C0E2FFE66A120031
:1012B800220E0C6E086A096A0A6A0B6A0C06D8B410
:1012C8001FD0D8900B320A32093208320332023268
:1012D80001320032D8A0F2D70C06D8B409D0045095
:1012E80008260550092206500A2207500B22EAD781
:1012F800045008260550092206500A2207500B22DE
:021308001200D1
:0A130A00D08EA28AA08AF28E120093
:1013140014C302F015C303F017C300F018C301F09F
:10132400010E0301175F000E185B0050011009E065
:1013340002C0E1FF03C0E2FF16C3E6FF024A032A2C
:04134400EBD71200D1
:10134800E0C0E9FFE1C0EAFFEECF00F0000E00BC0C
:10135800010E03011D6F040E0001E019006E00C0AC
:10136800E0F05750080A0AE122C46EFF6E500008E8
:1013780003E2100E576E02D0040E576E0001EE51B4
:10138800010A2DE1020EE025E16E000EE121E26E78
:10139800280E006E040E016E00C0E6FF01C0E6FFD5
:1013A800FBEC03F00001F051020A07E1E0C0E1FFA5
:1013B800E1C0E2FF840EE66E11D003011D51000A60
:1013C80007E1E0C0E1FFE1C0E2FFC80EE66E06D02B
:1013D800E0C0E1FFE1C0E2FF880EE66E01D00FDD5C
:0213E8001200F1
:1013EA000001EE51020A02E180DE1ED007DDEF5154
:1013FA00000A19E1010EDD25E16E000EDE21E26E22
:10140A00080EE66E020EDD25E16E000EDE21E26EAA
:10141A00200EE66E040EE66EDDC0E1FFDEC0E2FFDE
:0A142A008C0EE66E01D0EF6B12008D
:101434000450000A12E10550000A0FE10650000AA8
:101444000CE10750000A09E1FF0E006EFF0E016E69
:10145400FF0E026E7F0E036E99D00C6A07BE0C2A33
:101464000D6A0B6A0A6A096A086A035002100110BD
:101474000010D8B485D0035007180E6E0EBE0D1E92
:1014840007AE0BD0041E051E061E071E042AD8B480
:10149400052AD8B4062AD8B4072A03AE0BD0001EF6
:1014A400011E021E031E002AD8B4012AD8B4022A3F
:1014B400D8B4032A035007100E6E0EBE1DD0D0EC14
:1014C40005F00CBE36D00DAE5BD0001E011E021E10
:1014D400031E002AD8B4012AD8B4022AD8B4032A95
:1014E400081E091E0A1E0B1E082AD8B4092AD8B4DD
:1014F4000A2AD8B40B2A44D007AE15D003BE0DD0A7
:1015040003500B6E02500A6E0150096E0050086EB3
:10151400036A026A016A006AD6D7036A026A016A28
:10152400006A002A000C031E021E011E001E0C8EFF
:10153400C6D7082AD8B4092AD8B40A2AD8B40B2A98
:101544000450085CD8A4BFD70550095CD8A4BBD705
:1015540006500A5CD8A4B7D707500B5CD8A4B3D7FD
:101564000B6A0A6A096A086A002AD8B4012AD8B43C
:10157400022AD8B4032A03AEA6D70E6A0E88FF0C3B
:0E1584000E6A0CA002D0C4EC05F0000F12009D
:10159200E0C0E9FFE1C0EAFFEECF00F000AE05D007
:1015A200E0C0E1FFE1C0E2FFE66A0001F06BEE6B32
:1015B2000101006B016B0001FF6B1BDD030E0301D8
:1015C200206F000E216F226B236B246B256BAAEC1C
:0615D20002F03EDC1200F5
:0E15D800570E0D6E0D2EFED700000000120003
:1015E600000E0301151902E1000E141902E1016A49
:1015F60009D014C3E9FF15C3EAFFEECF00F0016A74
:0A16060000BE012A01C000F012002E
:0C161000DE5003E0E66E08EF0BF0120065
:10161C0014C304F015C305F016C306F017C307F086
:10162C00026A036A000E031802E1000E0218FF0E94
:10163C00D8A4000E016E04C0E9FF05C0EAFFEE500D
:10164C00000A000ED8A4FF0E006E0150001618E020
:10165C0006C0E9FF07C0EAFFEECF01F004C0E9FFC6
:10166C0005C0EAFFEECF00F00150005C026E000EE8
:10167C00036E000E0356044A052A064A072AD2D7DF
:0A168C0002C000F003C001F01200DC
:10169600086A096A100E0C6E0134083609360450C1
:1016A600085E0550D8A0053C095ED8B007D00450A6
:1016B60008260550D8B0053C0926D89000360136D4
:0616C6000C2EEAD7120011
:1016CC0003011451010A03E1800E146F14D014515C
:1016DC00020A03E1C00E146F0ED01451030A03E189
:1016EC00940E146F08D01451040A03E1D40E146F35
:1016FC0002D0800E146F1505006E1451002600C028
:10170C0014F300C01AF30DEC03F060910301186B95
:10171C0018511625E96E000E1721EA6EEE50000ADC
:10172C000DE018511625E96E000E1721EA6EEECF6A
:10173C0019F3FCEC06F00301182BEAD700016081C9
:02174C00120089
:0E174E00160E6F6E9F0E6B6E7B0E696E120094
:10175C000D6A086A0050D8B4000C04180A6E0ABE50
:10176C000D1E0B6A04AE02D0041E042A00A002D087
:10177C00001E002A005004100A6E0ABE1FD004502E
:10178C00085E003600340836045008260036060E73
:10179C000C6E00340836045000B0085E00A0082619
:1017AC0000360C2EF6D700A008260BB015D00DAEC7
:1017BC00000C001E002A081E082A000C04AE09D0DA
:1017CC0000BE04D00050086E006AF1D7006A002AEF
:1017DC00000C001E0B2AD3D7082A0450085CD8A48E
:0E17EC00E6D7086A002A00AEE2D7FF0C120012
:1017FA0003011551000A12E014C300F0000E016E35
:10180A00003600900136E00E0024E96E000E012039
:10181A00EA6EEECF04F0EECF05F011D014C300F05B
:10182A00000E016E003600900136E50E0024E96EC6
:10183A00000E0120EA6EEECF04F0EECF05F0020EA4
:10184A000424E16E000E0520E26E16C3E6FF17C3FC
:10185A00E6FF010E0424E16E000E0520E26E18C3B5
:10186A00E6FF04C0E9FF05C0EAFFEECF00F004C0BE
:10187A00E1FF05C0E2FF400E0014E66E04C0E9FF76
:10188A0005C0EAFFEECF00F004C0E1FF05C0E2FFA9
:10189A00880E0010E66E1551000A1BE014C300F012
:1018AA00000E016E003600900136E00E0024026E32
:1018BA00000E0120036E02C0E9FF03C0EAFF040E16
:1018CA00EE18006E02C0E1FF03C0E2FF00C0E6FFAF
:1018DA001AD014C300F0000E016E003600900136D3
:1018EA00E50E0024026E000E0120036E02C0E9FF1D
:1018FA0003C0EAFF040EEE18006E02C0E1FF03C047
:10190A00E2FF00C0E6FF04C000F005C001F01200CB
:10191A00939A93989390939293949396819A819899
:10192A00819681948192819070EC02F070EC02F0C1
:10193A0070EC02F081828180818A06EC03F0819A40
:10194A0070EC02F0818A06EC03F0819A70EC02F0E6
:10195A00818A06EC03F0819A70EC02F08190818A08
:10196A0006EC03F0819A70EC02F0818A06EC03F02F
:10197A00819A81928186818A06EC03F0819A70ECC1
:10198A0002F081968180818A06EC03F0819A819027
:10199A00818A06EC03F0819A70EC02F0818A06ECE7
:1019AA0003F0819A8180818A06EC03F0819A70ECB7
:1019BA0002F08190818A06EC03F0819A8186818403
:1019CA0081828180818A06EC03F0819A70EC02F0B0
:0619DA0000016081120013
:1019E00000C005F301C006F30301086B076B800E0E
:1019F0000419006E800E0719005C27E307510225C9
:101A0000E96E000E07BFFF0E0321EA6EEE50200ABA
:101A100017E0090E006E030E016E08510024E16EFE
:101A2000000E08BFFF0E0120E26E07510225E96E8D
:101A3000000E07BFFF0E0321EA6EEECFE6FF082B74
:101A40000751041902E0072BD2D705C3E1FF06C3F3
:101A5000E2FF090ED96E030EDA6EDADDE66A1200D5
:0E1A6000000E9EBA010E016E01C000F01200D1
:101A6E00200E575C03E36DB201D002D0006A120063
:101A7E00D8C014F3D9C015F3AFDD005218E105C379
:101A8E0014F3010E156F02C316F303C317F304C349
:101A9E0018F3ACDE00C0D8F001C0D9F0010E00245E
:101AAE00E96E000E0120EA6EEECF00F01200006A21
:021ABE00120014
:101AC00004C3E1FF05C3E2FF200EE66E200EE66EC2
:101AD000200EE66E200EE66E300EE66EE66A040E0E
:101AE00003010425066F000E0521076F000E031980
:101AF00002E1000E021927E00A0E046E000E056EC8
:101B000002C300F003C301F0C6DD08C000F009C045
:101B100001F0300E002606C3E1FF07C3E2FF00C05C
:101B2000E6FF0A0E046E000E056E02C300F003C34A
:101B300001F0B1DD00C002F301C003F3010E065F46
:081B4000000E075BD3D7120071
:101B480003010251010A2CE1AB0E146F000E156F50
:101B58004D0E036F6F0E046F640E056F650E066FF2
:101B6800200E076F310E086F200E096F200E0A6FC6
:101B7800200E0B6F200E0C6F200E0D6F200E0E6FB7
:101B8800200E0F6F200E106F200E116F200E126F97
:101B9800136B030E166F030E176F38EC09F01CD188
:101BA80003010251020A2CE1AB0E146F000E156FEF
:101BB8004D0E036F6F0E046F640E056F650E066F92
:101BC800200E076F320E086F200E096F200E0A6F65
:101BD800200E0B6F200E0C6F200E0D6F200E0E6F57
:101BE800200E0F6F200E106F200E116F200E126F37
:101BF800136B030E166F030E176F38EC09F0ECD059
:101C080003010251030A2CE1AB0E146F000E156F8D
:101C18004D0E036F6F0E046F640E056F650E066F31
:101C2800200E076F330E086F200E096F200E0A6F03
:101C3800200E0B6F200E0C6F200E0D6F200E0E6FF6
:101C4800200E0F6F200E106F200E116F200E126FD6
:101C5800136B030E166F030E176F38EC09F0BCD028
:101C680003010251040A2CE1AB0E146F000E156F2C
:101C78004D0E036F6F0E046F640E056F650E066FD1
:101C8800200E076F340E086F200E096F200E0A6FA2
:101C9800200E0B6F200E0C6F200E0D6F200E0E6F96
:101CA800200E0F6F200E106F200E116F200E126F76
:101CB800136B030E166F030E176F38EC09F08CD0F8
:101CC80003010251050A2CE1AB0E146F000E156FCB
:101CD8004D0E036F6F0E046F640E056F650E066F71
:101CE800200E076F350E086F200E096F200E0A6F41
:101CF800200E0B6F200E0C6F200E0D6F200E0E6F36
:101D0800200E0F6F200E106F200E116F200E126F15
:101D1800136B030E166F030E176F38EC09F05CD0C7
:101D280003010251060A2CE1AB0E146F000E156F69
:101D38004D0E036F6F0E046F640E056F650E066F10
:101D4800200E076F360E086F200E096F200E0A6FDF
:101D5800200E0B6F200E0C6F200E0D6F200E0E6FD5
:101D6800200E0F6F200E106F200E116F200E126FB5
:101D7800136B030E166F030E176F38EC09F02CD097
:101D8800AB0E0301146F000E156F4D0E036F6F0E2F
:101D9800046F640E056F650E066F200E076F300E18
:101DA800086F200E096F200E0A6F200E0B6F200E91
:101DB8000C6F200E0D6F200E0E6F200E0F6F200E71
:101DC800106F200E116F200E126F136B030E166F1B
:0A1DD800030E176F38EC09F012003B
:101DE2005750000A0BE16D6A696AB0DC85EC09F0B4
:0E1DF2006DB602D06D86FCD7010E576E120042
:101E000003010251800A0EE103C3E1FF04C3E2FFB4
:101E10002D0EE66E310EE66E320EE66E380EE66E72
:101E2000E66A45D0076B800E0219006E800E000A2C
:101E3000005C05E2FF0E076F02510008026F03C34A
:101E4000E1FF04C3E2FF200EE66E200EE66E200ED8
:101E5000E66E300EE66EE66A030E0325056F000E91
:101E60000421066F0251000A1AE00A0E046E02C332
:101E700000F074DC08C000F005C3E1FF06C3E2FF18
:101E8000300E0024E66E0A0E046E02C300F066DC1B
:101E900000C002F3010E055F000E065BE3D7075397
:101EA00006E005C3E1FF06C3E2FF2D0EE66E120059
:0E1EB000ACB202D00000FCD702C3ADFF12009E
:101EBE001EEC09F0FA6BFB6BD86BD96B6A6A686A19
:101ECE003FDC6D8C6E6A710E0301146F0F0E156F71
:101EDE00166B010E176F000E186F8AEC09F06D9CD1
:101EEE00026B080E025D16E202C300F0000E016ED8
:101EFE00003600900136003600900136000E0024A8
:101F0E00E16E040E0120E26EE66AE66AE66AE66AB1
:101F1E00022BE7D7160E706E68A603D0F70E681662
:101F2E00FBD70001FF6BF36BF46BF56B6D98080E2E
:0C1F3E00E06F040EE16FE46B576A1200C4
:101F4A00420E0301146F000E156F760E166F000E07
:101F5A00176F0EEC0BF0000E011802E1000E0018CC
:101F6A00000ED8A4FF0E0301026FAB0E146F000E11
:101F7A00156F650E166F000E176F0EEC0BF0000E44
:101F8A00011802E1000E0018000ED8A4FF0E026E1E
:101F9A00025003010211006E35E0010E1A6F0DECBA
:101FAA0003F00C0E03011A6F0DEC03F0010E03018E
:101FBA00146F010E156F420E166F000E176F66EC46
:101FCA000BF0020E0301146F010E156FAB0E166FA4
:101FDA00000E176F66EC0BF0760E0301146F000EFD
:101FEA00156F420E166F000E176F38EC09F0650E6A
:101FFA000301146F000E156FAB0E166F000E176FEC
:06200A0038EC09F01200A1
:10201000FD0E0001EB15016E026AFF0E0216000EA6
:10202000021802E1000E01186EE17E0EEB15016E42
:1020300001C003F00332039E03C000F0000E016EE6
:10204000003600900136003600900136000E002464
:10205000026E040E0120036E02C0DBF003C0DCF050
:1020600002C0DDF003C0DEF0040EDD19006E00C01A
:10207000DDF002C0E9FF03C0EAFFEECF00F000C0D0
:1020800001F03C0E01160132019E0132019E015009
:102090000D0A36E1020EDB25E96E000EDC21EA6E48
:1020A000EECF01F0EECF02F00250040A02E1280E5A
:1020B000011823E1020EDB25E16E000EDC21E26E49
:1020C000200EE66E040EE66E03011C6B080E1C5D0E
:1020D00014E2200EE16E040EE26E1C51E126D8B02F
:1020E000E22A280EE96E040EEA6E1C51E926D8B0E9
:1020F000EA2AEECFE6FF1C2BE9D7C9EC0AF002D0A2
:10210000F5EC09F00ED0FD0EEB15016E026AFF0E24
:102110000216000E021802E1040E011802E1A4ECFE
:0421200009F01200B0
:10212400AECF02F0ABA202D0AB98AB8802C001F0F4
:0621340001C000F01200E2
:10213A00C26A070EC012C08E02C300F000360090B9
:10214A00003600900050C212C280ECEC0AF0C28243
:10215A00C2A202D00000FCD7C4CF01F0006A00C0BE
:10216A0003F301C004F3C35003010313000E041365
:0C217A00C29003C300F004C301F0120087
:10218600200E575C03E36DB201D002D0006A120044
:10219600FAC014F3FBC015F3F3EC0AF0005218E191
:1021A60005C314F3156B02C316F303C317F304C375
:1021B60018F3FDEC0BF000C0FAF001C0FBF0010EC5
:1021C6000024E96E000E0120EA6EEECF00F0120048
:0421D600006A120089
:1021DA000301046B056B100E086F270E096F066B5F
:1021EA00076B0C6B0D6B0E6B0F6B0A6B0B6B06514F
:1021FA000225E96E07510321EA6EEE50000A4BE010
:10220A0006510225E96E07510321EA6EEE502D0AA6
:10221A0007E1FF0E0A6F000E0B6F064B072BE7D77D
:10222A0006510225E96E07510321EA6EEE50200A93
:10223A0021E006510225E96E07510321EA6E300EAC
:10224A00EE5C006E000E016E000E0156000E026E6C
:10225A00036E08C304F009C305F0000E066E076E8C
:10226A005CEC09F000500C2701500D2302500E239C
:10227A0003500F230A0E046E000E056E08C300F009
:10228A0009C301F04BEC0BF000C008F301C009F3DD
:10229A00064B072BACD70A510B1105E0060E086F47
:1022AA00000E096F04D0050E086F000E096F075162
:1022BA00091902E1085106191CE00A0E046E000E03
:1022CA00056E066E076E0CC300F00DC301F00EC357
:1022DA0002F00FC303F01AEC0AF000C00CF301C0BD
:1022EA000DF302C00EF303C00FF30301064B072BD5
:1022FA00DED70CC304F30DC305F3000E0B1902E17C
:10230A00FF0E0A1906E104510008046F0551000E78
:0C231A00055704C300F005C301F01200D9
:1023260002C301F003C302F004C303F005C304F0C3
:1023360001C0E9FF02C0EAFFEE50000A03E0014ACD
:10234600022AF6D703C0E9FF04C0EAFFEE50000AEE
:102356000FE003C0E9FF04C0EAFF01C0E1FF02C0CD
:10236600E2FFEECFE6FF014A022A034A042AEAD731
:0C23760001C0E1FF02C0E2FFE66A1200B5
:102382001EEC09F0FA6BFB6BD86BD96B6A6A686A50
:10239200A7EC0BF06D8C6E6A710E0301206F0F0EAD
:1023A200216F226B010E236F000E246FECEC02F002
:1023B2006D9C1C6B080E1C5D16E21CC300F0000E27
:1023C200016E003600900136003600900136000E94
:1023D2000024E16E040E0120E26EE66AE66AE66A15
:1023E200E66A1C2BE7D7160E706E68A603D0F70EAE
:1023F2006816FBD70001FF6BF36BF46BF56B6D98FE
:0E240200080EE06F040EE16FE46B576A1200E3
:102410006984EF0E68166D82750E0301206F000E41
:10242000216F226B236B246B256BAAEC02F0120048
:1024300070A019D0DBC0E9FFDCC0EAFFEECF01F0ED
:102440000150800A0FE1E0C0E9FFE1C0EAFFEECFF2
:1024500001F00150840A06E1DBC0E1FFDCC0E2FFCD
:0C2460008C0EE66E7090DF0E6816120005
:04246C00A19A12001F
:10247000740E0301206F000E216F226B236B246BFF
:10248000256BAAEC02F06D92699468A403D0FB0E50
:062490006816FBD71200E4
:102496009DC100F00032009E0032009E010E001425
:1024A600016E9DC103F00332039E010E0316010E59
:1024B60001019D15026E0150010A02E1838002D0DE
:1024C600FE0E83160350010A02E1838202D0FD0E3E
:1024D60083160250010A02E1838402D0FB0E8316A2
:0224E6001200E2
:1024E800406A0001AA6B416A000EBC6FBC0E030172
:1024F800146F000E156F300E01019D6F9E6B9D0EBF
:102508000301166F010E176F38EC09F0420E030134
:10251800146F000E156F540E01019D6F650E9E6FAE
:10252800740E9F6F720EA06F690EA16F780EA26F66
:10253800200EA36F200EA46F200EA56F200EA66F8D
:10254800200EA76F200EA86F200EA96F200EAA6F6D
:10255800200EAB6F200EAC6FAD6B9D0E0301166F96
:10256800010E176F38EC09F0AB0E0301146F000E63
:10257800156F770E01019D6F650E9E6F6C0E9F6F34
:10258800630EA06F6F0EA16F6D0EA26F650EA36F25
:10259800200EA46F200EA56F200EA66F200EA76F29
:1025A800200EA86F200EA96F200EAA6F200EAB6F09
:1025B800200EAC6FAD6B9D0E0301166F010E176FE9
:1025C80038EC09F0760E0301146F000E156F420EF9
:1025D800166F000E176F38EC09F0650E0301146FC3
:1025E800000E156FAB0E166F000E176F38EC09F062
:1025F800990E0301146F000E156F420E166F000E30
:10260800176F38EC09F0C70E0301146F000E156F31
:10261800AB0E166F000E176F38EC09F08DEC0CF04E
:10262800010E03011A6F0DEC03F00C0E03011A6F73
:102638000DEC03F0010E0301146F010E156F420E2D
:10264800166F000E176F66EC0BF0020E0301146F85
:10265800010E156FAB0E166F000E176F66EC0BF0C0
:0226680012005E
:10266A009DC1A4F19EC1A5F19FC1A6F1A0C1A7F188
:10267A000101A26BA151000A48E0A151FF0AD8A4A6
:10268A00A10730EC0DF00050000A02E10000F9D772
:10269A0044DD00C0A3F1A4C1E1FFA5C1E2FF00C06F
:1026AA00E6FF0101A44BA52BA6C1E9FFA7C1EAFFDA
:1026BA00EE50A31904E1A22BA64BA72B0ED09FC163
:1026CA00A6F1A0C1A7F19FC1E9FFA0C1EAFFEE50A0
:1026DA00A31903E1A22BA64BA72BA6C1E9FFA7C109
:1026EA00EAFFEE50000A10E1A251A45D006E000E4E
:1026FA00A559016E00C0A4F101C0A5F100C0E1FF17
:10270A0001C0E2FFE66A06D0B5D79DC1E1FF9EC1CE
:06271A00E2FFE66A120076
:10272000010E0101046F9DC105F19EC106F19FC11B
:1027300002F1A0C103F15FEC0FF0010E016E015038
:0A274000010A02E1F1EC0EF01200B4
:10274A0001019F6B9DC1E9FF9EC1EAFFEECFA0F197
:10275A00A051000A0FE0A0C102F358EC0FF00101EA
:10276A009F2B9F519D25E96E000E9E21EA6EEECFAA
:06277A00A0F1EED71200F1
:102780000301026BDADC00C09DF101C09EF1010E75
:10279000026FD3DC00C09FF101C0A0F19DC102F324
:1027A0009EC103F3350E046F000E056F60EC0DF053
:1027B000350E026F000E036F0A0E046FA10E006E3D
:1027C000010E016EF0EC0CF0350EE16E000EE26EC3
:1027D000A10ED96E010EDA6E08EC0BF0E66A9FC10D
:1027E00002F3A0C103F32A0E046F000E056F60EC24
:1027F0000DF02A0E026F000E036F0A0E046FA10E79
:10280000006E010E016EF0EC0CF02A0EE16E000E6F
:10281000E26EA10ED96E010EDA6E08EC0BF0E66ADC
:022820001200A4
:10282200B00E5C6E1E0E5D6E020E5E6E030E5F6E6D
:10283200240E0001616F210E626F000E636F000EA5
:10284200646F600E586E1A0E596E000E5A6E000EAC
:102852005B6EFF0E536EFF0E546E000E556E000E31
:10286200566EAC8A900EAB6E948E949C9EAA03D048
:08287200AECF00F0FBD712000D
:10287A009DC102F39EC103F39FC104F3010E03013C
:08288A00056F37EC0DF01200A0
:1028920005C102F306C103F3400E0301046F010EEA
:0628A200056F70DC12005E
:1028A8005750010A07E16DBA05D0686A69806988DE
:1028B800020E576E68A405D069A403D0FB0E6816F3
:1028C800D3DD6DA202D0CEDD120068A018D069A0B9
:1028D80016D053DD040E576E200E0401026F040E4D
:1028E800036F080E016F000E0015006E00C000F4A3
:1028F8008C0E0011006E00C000F4FE0E681668A869
:1029080005D069A803D080DDEF0E681668AC11D039
:1029180069AC0FD0730E0301206F000E216F226B7C
:10292800236B010E246F000E256FAAEC02F0BF0E78
:10293800681668AA03D069AA01D076DD68A210D00B
:1029480069A20ED0FF0E0301206F3F0E216F226B8C
:10295800236B010E246F000E256FAAEC02F06A6A41
:10296800040E575C02E27EDD120069A627D003013F
:102978001B6B040E1B5D22E268A61CD06CCFEBF02B
:10298800F70E6816780E0001EB15016E0150000A6B
:1029980003E108EC10F00DD0720E0301206F000E59
:1029A800216FEB0E226F000E236F246B256BAAECB0
:1029B80002F001D003D003011B2BDBD753DD12003B
:1029C80081BC02D0029001D002804050000AFF0E64
:1029D800D8A4000E016E006A02B0002A0150001649
:1029E80002E0010E406E81BC02D0028001D002904C
:1029F8004050010AFF0ED8A4000E016E006A02B012
:102A0800002A0150001634E0020E406E420E030107
:102A1800146F000E156F430E01019D6F680E9E6FB7
:102A28006F0E9F6F730EA06F650EA16F200EA26FC1
:102A38006D0EA36F6F0EA46F640EA56F650EA66F63
:102A48003A0EA76F300EA86F2D0EA96F360EAA6F1B
:102A5800200EAB6F200EAC6FAD6B9D0E0301166F91
:102A6800010E176F38EC09F041C002F3A4EC0DF029
:102A780081BC02D0029001D002804050020AFF0EB1
:102A8800D8A4000E016E006A02B0002A0050011698
:102A98000001AA51000AFF0ED8A4000E006E0150D2
:102AA800001602E0010EAA6F81BC02D0028001D09C
:102AB80002904050020AFF0ED8A4000E016E006A70
:102AC80002B0002A00500116AA51010AFF0ED8A42C
:102AD800000E006E015000160BE0412A4150060816
:102AE800D8A0416A41C002F3A4EC0DF00001AA6B22
:102AF80081BC02D0028001D002904050000AFF0E33
:102B0800D8A4000E016E006A02B0002A0150001617
:102B180016E0420E0301146F000E156F990E166F22
:102B2800000E176F38EC09F0AB0E0301146F000E9E
:102B3800156FC70E166F000E176F38EC09F081BEBF
:102B480002D0029001D002804050020AFF0ED8A4A1
:102B5800000E016E006A02B0002A0150001602E061
:102B6800030E406E81BE02D0028001D00290405018
:102B7800030AFF0ED8A4000E016E006A02B0002AF4
:102B88000150001621E041C002F3BC0E0301036F9F
:102B9800000E046F00EC0FF0BC0E026F000E036F06
:102BA8000A0E046FAE0E006E010E016EF0EC0CF012
:102BB800BC0EE16E000EE26EAE0ED96E010EDA6E3C
:0E2BC80008EC0BF0E66A406AA5EC0FF0120074
:102BD6000101A86BA96BA76BA7519D25E96E000E95
:102BE6009E21EA6EEE502C0A25E1AA0E0301006F23
:102BF600010E016FA8C100F0000E016E220E046ED8
:102C0600000E056E82EC02F000500025026E0150A7
:102C16000121036E0101A951A75D006E0050022437
:102C2600E16E000E0320E26EE66AA751010FA96F5E
:102C3600A82B27D0AA0E0301006F010E016FA8C1B1
:102C460000F0000E016E220E046E000E056E82EC80
:102C560002F000500025026E01500121036E0101B1
:102C6600A951A75D006E00500224E16E000E0320FC
:102C7600E26EA7519D25E96E000E9E21EA6EEECF0B
:102C8600E6FFA751400A02E0A72BA6D7A1C114F37D
:102C9600A2C115F3250E0201FE6FFF6BFE0E0301A6
:102CA600166F020E176F38EC09F0A1C102F3A2C12C
:102CB60003F3AA0E0301046F010E056F93EC11F0E6
:102CC600A1C102F3A2C103F32C0E0201FE6FFF6B3A
:102CD600FE0E0301046F020E056F93EC11F0A1C105
:102CE60002F3A2C103F3CC0E0301046F010E056FBC
:102CF60093EC11F0A1C102F3A2C103F37C0E020111
:102D0600FE6FFF6BFE0E0301046F020E056F93EC60
:102D160011F0A3C1E1FFA4C1E2FFEE0ED96E010ED0
:102D2600DA6E08EC0BF0E66AA5C1E1FFA6C1E2FF88
:102D3600100ED96E020EDA6E08EC0BF0E66A320E51
:102D46000301026F020E036FEDEC10F09FC1E1FF6D
:0A2D5600A0C1E2FF00C0E6FF12007A
:102D600000C09FF101C0A0F10101A26BA36BA16B98
:102D7000A105006E00509D25E96E000E00BEFF0EFD
:102D80009E21EA6EEE50250A04E1A1C1A2F1FF0ED8
:102D9000A36FA351FF0A19E1A251A15D026EA40E17
:102DA000006E010E016E02500024E16E000E02BEA4
:102DB000FF0E0120E26EA1519D25E96E000EA1BF1C
:102DC000FF0E9E21EA6EEECFE6FFA1513F0A02E020
:102DD000A12BCED79FC1E1FFA0C1E2FFA40ED96E07
:0C2DE000010EDA6E08EC0BF0E66A12003F
:102DEC000C0EC112070EB412FF0E926E956A836A16
:102DFC003F0E816E3F0E936E74EC12F0000E0101CB
:102E0C009D6F050E9E6F400E9F6F050EA06F82DCAE
:102E1C00190EAF6EAC84FFDCD1DDACDC34DD0050C0
:102E2C00000A20E0000E01019D6F050E9E6F070E3B
:102E3C009F6F010EA06F080EA16F010EA26F990E6D
:102E4C00A36F000EA46FC70EA56F000EA66FBDDE9C
:102E5C0007C19DF14BEC12F0080E01019D6F010EA4
:102E6C009E6F6DDC30EC0DF00050010AD8A480D0C0
:102E7C000101190E9D6F010E9E6F7C0E5A6F5B6BDC
:102E8C005A0E9F6F010EA06F400EA16F35EC13F020
:102E9C00190E9D6F010E9E6F5C0E006E010E016E81
:102EAC0059DF400EE16E050EE26E5C0ED96E010E1E
:102EBC00DA6E08EC0BF0E66A400E0301026F050EA9
:102ECC00036F2C0E01015A6F5B6B5A0E0301046FDA
:102EDC00010E056F93EC11F0400E0301026F050E0D
:102EEC00036FBC0E046F000E056F93EC11F0400ED7
:102EFC000301026F050E036F2C0E01015A6F5B6B01
:102F0C005A0E0301046F010E056F93EC11F0400E85
:102F1C000301026F050E036F350E046F000E056F73
:102F2C0093EC11F0400E0301026F050E036F2C0E93
:102F3C0001015A6F5B6B5A0E0301046F010E056F92
:102F4C0093EC11F0400E0301026F050E036F2A0E75
:102F5C00046F000E056F93EC11F0400E01019D6F94
:102F6C00050E9E6F400E9F6F82DC0050000AF5E04C
:042F7C0053D7FFD751
:102F80000902290001010080320904000002030047
:102F900000000921010100012221000705810340F1
:092FA000000107050103400001D6
:102FA9000600FF0901A10119012940150026FF00AA
:102FB90075089540810219012940750895409102CB
:022FC900C00046
:102FCB0018034500530043002D0049004F002D000E
:082FDB00430061007200640074
:102FE3001201000200000008880005000100010230
:022FF3000001DB
:0E2FF5000E035400650074007200690078003D
:0430030004030904B5
:020000040030CA
:0E000000210E2E1EFF8181FF00000FE00F4039
:00000001FF
